{
  "_format": "hh-sol-artifact-1",
  "contractName": "TicTacToe",
  "sourceName": "contracts/TicTacToe.sol",
  "abi": [
    {
      "inputs": [
        {
          "internalType": "uint256",
          "name": "_commission",
          "type": "uint256"
        },
        {
          "internalType": "uint256",
          "name": "_MINIMUM_ENTRY_FEE",
          "type": "uint256"
        }
      ],
      "stateMutability": "payable",
      "type": "constructor"
    },
    {
      "anonymous": false,
      "inputs": [
        {
          "indexed": false,
          "internalType": "uint256",
          "name": "gameId",
          "type": "uint256"
        },
        {
          "indexed": false,
          "internalType": "address",
          "name": "playerOne",
          "type": "address"
        }
      ],
      "name": "GameCancelled",
      "type": "event"
    },
    {
      "anonymous": false,
      "inputs": [
        {
          "indexed": false,
          "internalType": "uint256",
          "name": "gameId",
          "type": "uint256"
        },
        {
          "indexed": false,
          "internalType": "address",
          "name": "playerOne",
          "type": "address"
        },
        {
          "indexed": false,
          "internalType": "uint256",
          "name": "entryFee",
          "type": "uint256"
        }
      ],
      "name": "GameStarted",
      "type": "event"
    },
    {
      "anonymous": false,
      "inputs": [
        {
          "indexed": false,
          "internalType": "uint256",
          "name": "gameId",
          "type": "uint256"
        },
        {
          "indexed": false,
          "internalType": "enum TicTacToe.Winner",
          "name": "winner",
          "type": "uint8"
        },
        {
          "indexed": false,
          "internalType": "uint256",
          "name": "reward",
          "type": "uint256"
        }
      ],
      "name": "HaveWinner",
      "type": "event"
    },
    {
      "anonymous": false,
      "inputs": [
        {
          "indexed": false,
          "internalType": "uint256",
          "name": "gameId",
          "type": "uint256"
        },
        {
          "indexed": false,
          "internalType": "address",
          "name": "playerTwo",
          "type": "address"
        }
      ],
      "name": "JoinedGame",
      "type": "event"
    },
    {
      "anonymous": false,
      "inputs": [
        {
          "indexed": false,
          "internalType": "uint256",
          "name": "gameId",
          "type": "uint256"
        },
        {
          "indexed": false,
          "internalType": "uint256",
          "name": "x",
          "type": "uint256"
        },
        {
          "indexed": false,
          "internalType": "uint256",
          "name": "y",
          "type": "uint256"
        },
        {
          "indexed": false,
          "internalType": "address",
          "name": "player",
          "type": "address"
        }
      ],
      "name": "MadeMove",
      "type": "event"
    },
    {
      "stateMutability": "payable",
      "type": "fallback"
    },
    {
      "inputs": [
        {
          "internalType": "address",
          "name": "",
          "type": "address"
        }
      ],
      "name": "balance",
      "outputs": [
        {
          "internalType": "uint256",
          "name": "",
          "type": "uint256"
        }
      ],
      "stateMutability": "view",
      "type": "function"
    },
    {
      "inputs": [
        {
          "internalType": "uint256",
          "name": "_gameId",
          "type": "uint256"
        }
      ],
      "name": "cancelGame",
      "outputs": [],
      "stateMutability": "nonpayable",
      "type": "function"
    },
    {
      "inputs": [
        {
          "internalType": "uint256",
          "name": "_amount",
          "type": "uint256"
        }
      ],
      "name": "claimRewards",
      "outputs": [],
      "stateMutability": "payable",
      "type": "function"
    },
    {
      "inputs": [],
      "name": "commission",
      "outputs": [
        {
          "internalType": "uint256",
          "name": "",
          "type": "uint256"
        }
      ],
      "stateMutability": "view",
      "type": "function"
    },
    {
      "inputs": [],
      "name": "countGame",
      "outputs": [
        {
          "internalType": "uint256",
          "name": "",
          "type": "uint256"
        }
      ],
      "stateMutability": "view",
      "type": "function"
    },
    {
      "inputs": [
        {
          "internalType": "uint256",
          "name": "",
          "type": "uint256"
        }
      ],
      "name": "gameRewardPool",
      "outputs": [
        {
          "internalType": "uint256",
          "name": "",
          "type": "uint256"
        }
      ],
      "stateMutability": "view",
      "type": "function"
    },
    {
      "inputs": [
        {
          "internalType": "uint256",
          "name": "",
          "type": "uint256"
        }
      ],
      "name": "games",
      "outputs": [
        {
          "internalType": "uint256",
          "name": "gameId",
          "type": "uint256"
        },
        {
          "internalType": "uint256",
          "name": "creatingTime",
          "type": "uint256"
        },
        {
          "internalType": "address",
          "name": "playerOne",
          "type": "address"
        },
        {
          "internalType": "address",
          "name": "playerTwo",
          "type": "address"
        },
        {
          "internalType": "uint256",
          "name": "rewardPool",
          "type": "uint256"
        },
        {
          "internalType": "bool",
          "name": "isStarted",
          "type": "bool"
        },
        {
          "internalType": "address",
          "name": "nextMove",
          "type": "address"
        },
        {
          "internalType": "enum TicTacToe.Winner",
          "name": "winner",
          "type": "uint8"
        },
        {
          "internalType": "bool",
          "name": "isRewardClaimed",
          "type": "bool"
        }
      ],
      "stateMutability": "view",
      "type": "function"
    },
    {
      "inputs": [],
      "name": "getBalance",
      "outputs": [
        {
          "internalType": "uint256",
          "name": "",
          "type": "uint256"
        }
      ],
      "stateMutability": "view",
      "type": "function"
    },
    {
      "inputs": [
        {
          "internalType": "address",
          "name": "_address",
          "type": "address"
        }
      ],
      "name": "getEachBalance",
      "outputs": [
        {
          "internalType": "uint256",
          "name": "",
          "type": "uint256"
        }
      ],
      "stateMutability": "view",
      "type": "function"
    },
    {
      "inputs": [
        {
          "internalType": "uint256",
          "name": "_gameId",
          "type": "uint256"
        }
      ],
      "name": "getGameBoard",
      "outputs": [
        {
          "internalType": "enum TicTacToe.Status[3][3]",
          "name": "",
          "type": "uint8[3][3]"
        }
      ],
      "stateMutability": "view",
      "type": "function"
    },
    {
      "inputs": [],
      "name": "getGames",
      "outputs": [
        {
          "components": [
            {
              "internalType": "uint256",
              "name": "gameId",
              "type": "uint256"
            },
            {
              "internalType": "uint256",
              "name": "creatingTime",
              "type": "uint256"
            },
            {
              "internalType": "address",
              "name": "playerOne",
              "type": "address"
            },
            {
              "internalType": "address",
              "name": "playerTwo",
              "type": "address"
            },
            {
              "internalType": "uint256",
              "name": "rewardPool",
              "type": "uint256"
            },
            {
              "internalType": "bool",
              "name": "isStarted",
              "type": "bool"
            },
            {
              "internalType": "address",
              "name": "nextMove",
              "type": "address"
            },
            {
              "internalType": "enum TicTacToe.Status[3][3]",
              "name": "gameBoard",
              "type": "uint8[3][3]"
            },
            {
              "internalType": "enum TicTacToe.Winner",
              "name": "winner",
              "type": "uint8"
            },
            {
              "internalType": "bool",
              "name": "isRewardClaimed",
              "type": "bool"
            }
          ],
          "internalType": "struct TicTacToe.Game[]",
          "name": "",
          "type": "tuple[]"
        }
      ],
      "stateMutability": "view",
      "type": "function"
    },
    {
      "inputs": [
        {
          "internalType": "uint256",
          "name": "_gameId",
          "type": "uint256"
        }
      ],
      "name": "joinGame",
      "outputs": [],
      "stateMutability": "payable",
      "type": "function"
    },
    {
      "inputs": [
        {
          "internalType": "uint8",
          "name": "_x",
          "type": "uint8"
        },
        {
          "internalType": "uint8",
          "name": "_y",
          "type": "uint8"
        },
        {
          "internalType": "uint256",
          "name": "_gameId",
          "type": "uint256"
        }
      ],
      "name": "makeMove",
      "outputs": [],
      "stateMutability": "nonpayable",
      "type": "function"
    },
    {
      "inputs": [],
      "name": "owner",
      "outputs": [
        {
          "internalType": "address payable",
          "name": "",
          "type": "address"
        }
      ],
      "stateMutability": "view",
      "type": "function"
    },
    {
      "inputs": [],
      "name": "pausedAllGames",
      "outputs": [
        {
          "internalType": "bool",
          "name": "",
          "type": "bool"
        }
      ],
      "stateMutability": "view",
      "type": "function"
    },
    {
      "inputs": [],
      "name": "startGame",
      "outputs": [],
      "stateMutability": "payable",
      "type": "function"
    },
    {
      "inputs": [],
      "name": "toggleContract",
      "outputs": [],
      "stateMutability": "nonpayable",
      "type": "function"
    },
    {
      "inputs": [
        {
          "internalType": "uint256",
          "name": "_amount",
          "type": "uint256"
        }
      ],
      "name": "withdraw",
      "outputs": [],
      "stateMutability": "payable",
      "type": "function"
    },
    {
      "stateMutability": "payable",
      "type": "receive"
    }
  ],
  "bytecode": "0x60a06040526001805560405162004f0f38038062004f0f83398181016040528101906200002d91906200056a565b6032821062000073576040517f08c379a00000000000000000000000000000000000000000000000000000000081526004016200006a9062000612565b60405180910390fd5b6064811015620000ba576040517f08c379a0000000000000000000000000000000000000000000000000000000008152600401620000b19062000684565b60405180910390fd5b336000806101000a81548173ffffffffffffffffffffffffffffffffffffffff021916908373ffffffffffffffffffffffffffffffffffffffff16021790555081600381905550806080818152505062000113620002cc565b60068190806001815401808255809150506001900390600052602060002090600a0201600090919091909150600082015181600001556020820151816001015560408201518160020160006101000a81548173ffffffffffffffffffffffffffffffffffffffff021916908373ffffffffffffffffffffffffffffffffffffffff16021790555060608201518160030160006101000a81548173ffffffffffffffffffffffffffffffffffffffff021916908373ffffffffffffffffffffffffffffffffffffffff1602179055506080820151816004015560a08201518160050160006101000a81548160ff02191690831515021790555060c08201518160050160016101000a81548173ffffffffffffffffffffffffffffffffffffffff021916908373ffffffffffffffffffffffffffffffffffffffff16021790555060e0820151816006019060036200026b92919062000382565b506101008201518160090160006101000a81548160ff021916908360038111156200029b576200029a620006a6565b5b02179055506101208201518160090160016101000a81548160ff0219169083151502179055505050505050620006d5565b6040518061014001604052806000815260200160008152602001600073ffffffffffffffffffffffffffffffffffffffff168152602001600073ffffffffffffffffffffffffffffffffffffffff16815260200160008152602001600015158152602001600073ffffffffffffffffffffffffffffffffffffffff16815260200162000357620003d7565b815260200160006003811115620003735762000372620006a6565b5b81526020016000151581525090565b8260038101928215620003c4579160200282015b82811115620003c357825182906003620003b292919062000407565b509160200191906001019062000396565b5b509050620003d39190620004ba565b5090565b60405180606001604052806003905b620003f0620004e2565b815260200190600190039081620003e65790505090565b826003601f01602090048101928215620004a75791602002820160005b838211156200047657835183826101000a81548160ff02191690836002811115620004545762000453620006a6565b5b0217905550926020019260010160208160000104928301926001030262000424565b8015620004a55782816101000a81549060ff021916905560010160208160000104928301926001030262000476565b505b509050620004b6919062000504565b5090565b5b80821115620004de5760008181620004d4919062000523565b50600101620004bb565b5090565b6040518060600160405280600390602082028036833780820191505090505090565b5b808211156200051f57600081600090555060010162000505565b5090565b5060009055565b600080fd5b6000819050919050565b62000544816200052f565b81146200055057600080fd5b50565b600081519050620005648162000539565b92915050565b600080604083850312156200058457620005836200052a565b5b6000620005948582860162000553565b9250506020620005a78582860162000553565b9150509250929050565b600082825260208201905092915050565b7f436f6d6d697373696f6e2073686f756c64206265203c2035302e000000000000600082015250565b6000620005fa601a83620005b1565b91506200060782620005c2565b602082019050919050565b600060208201905081810360008301526200062d81620005eb565b9050919050565b7f4d696e206665652073686f756c64206265203e3d203130300000000000000000600082015250565b60006200066c601883620005b1565b9150620006798262000634565b602082019050919050565b600060208201905081810360008301526200069f816200065d565b9050919050565b7f4e487b7100000000000000000000000000000000000000000000000000000000600052602160045260246000fd5b60805161481e620006f16000396000611bc5015261481e6000f3fe60806040526004361061010d5760003560e01c80639df9002811610095578063e148919111610064578063e14891911461031a578063e3d60e3c14610345578063e3d670d714610382578063e44cd859146103bf578063efaa55a0146103fc57610114565b80639df90028146102a3578063c04c5947146102ba578063d0232c70146102e5578063d65ab5f21461031057610114565b80632e1a7d4d116100dc5780632e1a7d4d146101df5780633bb6c5f4146101fb57806369958ab91461022657806385f547451461024f5780638da5cb5b1461027857610114565b80630962ef7914610116578063117a5b901461013257806312065fe0146101775780631a2361e7146101a257610114565b3661011457005b005b610130600480360381019061012b91906135d4565b610418565b005b34801561013e57600080fd5b50610159600480360381019061015491906135d4565b6105a0565b60405161016e999897969594939291906136e3565b60405180910390f35b34801561018357600080fd5b5061018c610685565b6040516101999190613770565b60405180910390f35b3480156101ae57600080fd5b506101c960048036038101906101c491906135d4565b61068d565b6040516101d6919061390b565b60405180910390f35b6101f960048036038101906101f491906135d4565b61076d565b005b34801561020757600080fd5b50610210610983565b60405161021d9190613770565b60405180910390f35b34801561023257600080fd5b5061024d600480360381019061024891906135d4565b610989565b005b34801561025b57600080fd5b5061027660048036038101906102719190613960565b610ef2565b005b34801561028457600080fd5b5061028d6117e2565b60405161029a91906139d4565b60405180910390f35b3480156102af57600080fd5b506102b8611806565b005b3480156102c657600080fd5b506102cf6118c0565b6040516102dc9190613c09565b60405180910390f35b3480156102f157600080fd5b506102fa611b60565b6040516103079190613c2b565b60405180910390f35b610318611b73565b005b34801561032657600080fd5b5061032f611f87565b60405161033c9190613770565b60405180910390f35b34801561035157600080fd5b5061036c60048036038101906103679190613c72565b611f8d565b6040516103799190613770565b60405180910390f35b34801561038e57600080fd5b506103a960048036038101906103a49190613c72565b611fd6565b6040516103b69190613770565b60405180910390f35b3480156103cb57600080fd5b506103e660048036038101906103e191906135d4565b611fee565b6040516103f39190613770565b60405180910390f35b610416600480360381019061041191906135d4565b612006565b005b80600560003373ffffffffffffffffffffffffffffffffffffffff1673ffffffffffffffffffffffffffffffffffffffff16815260200190815260200160002054101561049a576040517f08c379a000000000000000000000000000000000000000000000000000000000815260040161049190613cfc565b60405180910390fd5b80600560003373ffffffffffffffffffffffffffffffffffffffff1673ffffffffffffffffffffffffffffffffffffffff16815260200190815260200160002060008282546104e99190613d4b565b9250508190555060003373ffffffffffffffffffffffffffffffffffffffff168260405161051690613db0565b60006040518083038185875af1925050503d8060008114610553576040519150601f19603f3d011682016040523d82523d6000602084013e610558565b606091505b505090508061059c576040517f08c379a000000000000000000000000000000000000000000000000000000000815260040161059390613e11565b60405180910390fd5b5050565b600681815481106105b057600080fd5b90600052602060002090600a02016000915090508060000154908060010154908060020160009054906101000a900473ffffffffffffffffffffffffffffffffffffffff16908060030160009054906101000a900473ffffffffffffffffffffffffffffffffffffffff16908060040154908060050160009054906101000a900460ff16908060050160019054906101000a900473ffffffffffffffffffffffffffffffffffffffff16908060090160009054906101000a900460ff16908060090160019054906101000a900460ff16905089565b600047905090565b610695613327565b6000600683815481106106ab576106aa613e31565b5b90600052602060002090600a0201600601600380602002604051908101604052809291906000905b8282101561075e5783820160038060200260405190810160405280929190826003801561074a576020028201916000905b82829054906101000a900460ff1660028111156107245761072361366c565b5b815260200190600101906020826000010492830192600103820291508084116107045790505b5050505050815260200190600101906106d3565b50505050905080915050919050565b60008054906101000a900473ffffffffffffffffffffffffffffffffffffffff1673ffffffffffffffffffffffffffffffffffffffff163373ffffffffffffffffffffffffffffffffffffffff16146107fb576040517f08c379a00000000000000000000000000000000000000000000000000000000081526004016107f290613eac565b60405180910390fd5b80600560003073ffffffffffffffffffffffffffffffffffffffff1673ffffffffffffffffffffffffffffffffffffffff16815260200190815260200160002054101561087d576040517f08c379a000000000000000000000000000000000000000000000000000000000815260040161087490613cfc565b60405180910390fd5b80600560003073ffffffffffffffffffffffffffffffffffffffff1673ffffffffffffffffffffffffffffffffffffffff16815260200190815260200160002060008282546108cc9190613d4b565b9250508190555060003373ffffffffffffffffffffffffffffffffffffffff16826040516108f990613db0565b60006040518083038185875af1925050503d8060008114610936576040519150601f19603f3d011682016040523d82523d6000602084013e61093b565b606091505b505090508061097f576040517f08c379a000000000000000000000000000000000000000000000000000000000815260040161097690613f18565b60405180910390fd5b5050565b60015481565b60006006828154811061099f5761099e613e31565b5b90600052602060002090600a02016040518061014001604052908160008201548152602001600182015481526020016002820160009054906101000a900473ffffffffffffffffffffffffffffffffffffffff1673ffffffffffffffffffffffffffffffffffffffff1673ffffffffffffffffffffffffffffffffffffffff1681526020016003820160009054906101000a900473ffffffffffffffffffffffffffffffffffffffff1673ffffffffffffffffffffffffffffffffffffffff1673ffffffffffffffffffffffffffffffffffffffff168152602001600482015481526020016005820160009054906101000a900460ff161515151581526020016005820160019054906101000a900473ffffffffffffffffffffffffffffffffffffffff1673ffffffffffffffffffffffffffffffffffffffff1673ffffffffffffffffffffffffffffffffffffffff16815260200160068201600380602002604051908101604052809291906000905b82821015610b9b57838201600380602002604051908101604052809291908260038015610b87576020028201916000905b82829054906101000a900460ff166002811115610b6157610b6061366c565b5b81526020019060010190602082600001049283019260010382029150808411610b415790505b505050505081526020019060010190610b10565b5050505081526020016009820160009054906101000a900460ff166003811115610bc857610bc761366c565b5b6003811115610bda57610bd961366c565b5b81526020016009820160019054906101000a900460ff16151515158152505090508060a0015115610c40576040517f08c379a0000000000000000000000000000000000000000000000000000000008152600401610c3790613f84565b60405180910390fd5b42620151808260200151610c549190613fa4565b10610c94576040517f08c379a0000000000000000000000000000000000000000000000000000000008152600401610c8b90614024565b60405180910390fd5b3373ffffffffffffffffffffffffffffffffffffffff16816040015173ffffffffffffffffffffffffffffffffffffffff1614610d06576040517f08c379a0000000000000000000000000000000000000000000000000000000008152600401610cfd90614090565b60405180910390fd5b60068281548110610d1a57610d19613e31565b5b90600052602060002090600a020160008082016000905560018201600090556002820160006101000a81549073ffffffffffffffffffffffffffffffffffffffff02191690556003820160006101000a81549073ffffffffffffffffffffffffffffffffffffffff021916905560048201600090556005820160006101000a81549060ff02191690556005820160016101000a81549073ffffffffffffffffffffffffffffffffffffffff0219169055600682016000610dda9190613354565b6009820160006101000a81549060ff02191690556009820160016101000a81549060ff0219169055505060003373ffffffffffffffffffffffffffffffffffffffff168260800151604051610e2e90613db0565b60006040518083038185875af1925050503d8060008114610e6b576040519150601f19603f3d011682016040523d82523d6000602084013e610e70565b606091505b5050905080610eb4576040517f08c379a0000000000000000000000000000000000000000000000000000000008152600401610eab906140fc565b60405180910390fd5b7f58f64e02b3a6d2a3bd28b7700a0a0d6699545bcb55bf917ac0ff670f3a509efb8333604051610ee592919061411c565b60405180910390a1505050565b600260009054906101000a900460ff1615610f42576040517f08c379a0000000000000000000000000000000000000000000000000000000008152600401610f3990614191565b60405180910390fd5b600060068281548110610f5857610f57613e31565b5b90600052602060002090600a02016040518061014001604052908160008201548152602001600182015481526020016002820160009054906101000a900473ffffffffffffffffffffffffffffffffffffffff1673ffffffffffffffffffffffffffffffffffffffff1673ffffffffffffffffffffffffffffffffffffffff1681526020016003820160009054906101000a900473ffffffffffffffffffffffffffffffffffffffff1673ffffffffffffffffffffffffffffffffffffffff1673ffffffffffffffffffffffffffffffffffffffff168152602001600482015481526020016005820160009054906101000a900460ff161515151581526020016005820160019054906101000a900473ffffffffffffffffffffffffffffffffffffffff1673ffffffffffffffffffffffffffffffffffffffff1673ffffffffffffffffffffffffffffffffffffffff16815260200160068201600380602002604051908101604052809291906000905b8282101561115457838201600380602002604051908101604052809291908260038015611140576020028201916000905b82829054906101000a900460ff16600281111561111a5761111961366c565b5b815260200190600101906020826000010492830192600103820291508084116110fa5790505b5050505050815260200190600101906110c9565b5050505081526020016009820160009054906101000a900460ff1660038111156111815761118061366c565b5b60038111156111935761119261366c565b5b81526020016009820160019054906101000a900460ff16151515158152505090508060a001516111f8576040517f08c379a00000000000000000000000000000000000000000000000000000000081526004016111ef906141fd565b60405180910390fd5b6000600381111561120c5761120b61366c565b5b81610100015160038111156112245761122361366c565b5b14611264576040517f08c379a000000000000000000000000000000000000000000000000000000000815260040161125b90614269565b60405180910390fd5b3373ffffffffffffffffffffffffffffffffffffffff168160c0015173ffffffffffffffffffffffffffffffffffffffff16146112d6576040517f08c379a00000000000000000000000000000000000000000000000000000000081526004016112cd906142d5565b60405180910390fd5b600060028111156112ea576112e961366c565b5b8160e001518560ff166003811061130457611303613e31565b5b60200201518460ff166003811061131e5761131d613e31565b5b602002015160028111156113355761133461366c565b5b14611375576040517f08c379a000000000000000000000000000000000000000000000000000000000815260040161136c90614341565b60405180910390fd5b806040015173ffffffffffffffffffffffffffffffffffffffff163373ffffffffffffffffffffffffffffffffffffffff16036114525760018160e001518560ff16600381106113c8576113c7613e31565b5b60200201518460ff16600381106113e2576113e1613e31565b5b602002019060028111156113f9576113f861366c565b5b9081600281111561140d5761140c61366c565b5b8152505080606001518160c0019073ffffffffffffffffffffffffffffffffffffffff16908173ffffffffffffffffffffffffffffffffffffffff168152505061152c565b806060015173ffffffffffffffffffffffffffffffffffffffff163373ffffffffffffffffffffffffffffffffffffffff160361152b5760028160e001518560ff16600381106114a5576114a4613e31565b5b60200201518460ff16600381106114bf576114be613e31565b5b602002019060028111156114d6576114d561366c565b5b908160028111156114ea576114e961366c565b5b8152505080604001518160c0019073ffffffffffffffffffffffffffffffffffffffff16908173ffffffffffffffffffffffffffffffffffffffff16815250505b5b7f18b1d49fa18a1f33225d9ea1b2b8e7f40aba2c68cc5065c9dd62334aef6f4c3782858533604051611561949392919061439c565b60405180910390a16115768160e001516126b4565b816101000190600381111561158e5761158d61366c565b5b908160038111156115a2576115a161366c565b5b8152505080600683815481106115bb576115ba613e31565b5b90600052602060002090600a0201600082015181600001556020820151816001015560408201518160020160006101000a81548173ffffffffffffffffffffffffffffffffffffffff021916908373ffffffffffffffffffffffffffffffffffffffff16021790555060608201518160030160006101000a81548173ffffffffffffffffffffffffffffffffffffffff021916908373ffffffffffffffffffffffffffffffffffffffff1602179055506080820151816004015560a08201518160050160006101000a81548160ff02191690831515021790555060c08201518160050160016101000a81548173ffffffffffffffffffffffffffffffffffffffff021916908373ffffffffffffffffffffffffffffffffffffffff16021790555060e0820151816006019060036116f3929190613387565b506101008201518160090160006101000a81548160ff021916908360038111156117205761171f61366c565b5b02179055506101208201518160090160016101000a81548160ff0219169083151502179055509050506000600381111561175d5761175c61366c565b5b81610100015160038111156117755761177461366c565b5b146117dc5761179781608001518261010001518360400151846060015161283c565b7fbf1968c164be03f4b61398d39e02d14908da862880412e7a8347907459181dd08282610100015183608001516040516117d3939291906143e1565b60405180910390a15b50505050565b60008054906101000a900473ffffffffffffffffffffffffffffffffffffffff1681565b60008054906101000a900473ffffffffffffffffffffffffffffffffffffffff1673ffffffffffffffffffffffffffffffffffffffff163373ffffffffffffffffffffffffffffffffffffffff1614611894576040517f08c379a000000000000000000000000000000000000000000000000000000000815260040161188b90613eac565b60405180910390fd5b600260009054906101000a900460ff1615600260006101000a81548160ff021916908315150217905550565b60606006805480602002602001604051908101604052809291908181526020016000905b82821015611b5757838290600052602060002090600a02016040518061014001604052908160008201548152602001600182015481526020016002820160009054906101000a900473ffffffffffffffffffffffffffffffffffffffff1673ffffffffffffffffffffffffffffffffffffffff1673ffffffffffffffffffffffffffffffffffffffff1681526020016003820160009054906101000a900473ffffffffffffffffffffffffffffffffffffffff1673ffffffffffffffffffffffffffffffffffffffff1673ffffffffffffffffffffffffffffffffffffffff168152602001600482015481526020016005820160009054906101000a900460ff161515151581526020016005820160019054906101000a900473ffffffffffffffffffffffffffffffffffffffff1673ffffffffffffffffffffffffffffffffffffffff1673ffffffffffffffffffffffffffffffffffffffff16815260200160068201600380602002604051908101604052809291906000905b82821015611aea57838201600380602002604051908101604052809291908260038015611ad6576020028201916000905b82829054906101000a900460ff166002811115611ab057611aaf61366c565b5b81526020019060010190602082600001049283019260010382029150808411611a905790505b505050505081526020019060010190611a5f565b5050505081526020016009820160009054906101000a900460ff166003811115611b1757611b1661366c565b5b6003811115611b2957611b2861366c565b5b81526020016009820160019054906101000a900460ff161515151581525050815260200190600101906118e4565b50505050905090565b600260009054906101000a900460ff1681565b600260009054906101000a900460ff1615611bc3576040517f08c379a0000000000000000000000000000000000000000000000000000000008152600401611bba90614191565b60405180910390fd5b7f00000000000000000000000000000000000000000000000000000000000000003411611c25576040517f08c379a0000000000000000000000000000000000000000000000000000000008152600401611c1c90614464565b60405180910390fd5b60003073ffffffffffffffffffffffffffffffffffffffff1634604051611c4b90613db0565b60006040518083038185875af1925050503d8060008114611c88576040519150601f19603f3d011682016040523d82523d6000602084013e611c8d565b606091505b5050905080611cd1576040517f08c379a0000000000000000000000000000000000000000000000000000000008152600401611cc8906144d0565b60405180910390fd5b611cd96133d5565b60015481600001818152505033816040019073ffffffffffffffffffffffffffffffffffffffff16908173ffffffffffffffffffffffffffffffffffffffff16815250504281602001818152505034816080018181525050338160c0019073ffffffffffffffffffffffffffffffffffffffff16908173ffffffffffffffffffffffffffffffffffffffff168152505060068190806001815401808255809150506001900390600052602060002090600a0201600090919091909150600082015181600001556020820151816001015560408201518160020160006101000a81548173ffffffffffffffffffffffffffffffffffffffff021916908373ffffffffffffffffffffffffffffffffffffffff16021790555060608201518160030160006101000a81548173ffffffffffffffffffffffffffffffffffffffff021916908373ffffffffffffffffffffffffffffffffffffffff1602179055506080820151816004015560a08201518160050160006101000a81548160ff02191690831515021790555060c08201518160050160016101000a81548173ffffffffffffffffffffffffffffffffffffffff021916908373ffffffffffffffffffffffffffffffffffffffff16021790555060e082015181600601906003611ebf929190613387565b506101008201518160090160006101000a81548160ff02191690836003811115611eec57611eeb61366c565b5b02179055506101208201518160090160016101000a81548160ff021916908315150217905550505034600460006001548152602001908152602001600020819055507f0c82908456d66c43e9de63edd66f9faf875c8f3a12f936e162d675ec42c354446001543334604051611f63939291906144f0565b60405180910390a160016000815480929190611f7e90614527565b91905055505050565b60035481565b6000600560008373ffffffffffffffffffffffffffffffffffffffff1673ffffffffffffffffffffffffffffffffffffffff168152602001908152602001600020549050919050565b60056020528060005260406000206000915090505481565b60046020528060005260406000206000915090505481565b600260009054906101000a900460ff1615612056576040517f08c379a000000000000000000000000000000000000000000000000000000000815260040161204d90614191565b60405180910390fd5b60006006828154811061206c5761206b613e31565b5b90600052602060002090600a02016040518061014001604052908160008201548152602001600182015481526020016002820160009054906101000a900473ffffffffffffffffffffffffffffffffffffffff1673ffffffffffffffffffffffffffffffffffffffff1673ffffffffffffffffffffffffffffffffffffffff1681526020016003820160009054906101000a900473ffffffffffffffffffffffffffffffffffffffff1673ffffffffffffffffffffffffffffffffffffffff1673ffffffffffffffffffffffffffffffffffffffff168152602001600482015481526020016005820160009054906101000a900460ff161515151581526020016005820160019054906101000a900473ffffffffffffffffffffffffffffffffffffffff1673ffffffffffffffffffffffffffffffffffffffff1673ffffffffffffffffffffffffffffffffffffffff16815260200160068201600380602002604051908101604052809291906000905b8282101561226857838201600380602002604051908101604052809291908260038015612254576020028201916000905b82829054906101000a900460ff16600281111561222e5761222d61366c565b5b8152602001906001019060208260000104928301926001038202915080841161220e5790505b5050505050815260200190600101906121dd565b5050505081526020016009820160009054906101000a900460ff1660038111156122955761229461366c565b5b60038111156122a7576122a661366c565b5b81526020016009820160019054906101000a900460ff16151515158152505090508060800151341461230e576040517f08c379a0000000000000000000000000000000000000000000000000000000008152600401612305906145bb565b60405180910390fd5b8060a0015115612353576040517f08c379a000000000000000000000000000000000000000000000000000000000815260040161234a90614627565b60405180910390fd5b3373ffffffffffffffffffffffffffffffffffffffff16816040015173ffffffffffffffffffffffffffffffffffffffff16036123c5576040517f08c379a00000000000000000000000000000000000000000000000000000000081526004016123bc90614693565b60405180910390fd5b60003073ffffffffffffffffffffffffffffffffffffffff16346040516123eb90613db0565b60006040518083038185875af1925050503d8060008114612428576040519150601f19603f3d011682016040523d82523d6000602084013e61242d565b606091505b5050905080612471576040517f08c379a0000000000000000000000000000000000000000000000000000000008152600401612468906144d0565b60405180910390fd5b33826060019073ffffffffffffffffffffffffffffffffffffffff16908173ffffffffffffffffffffffffffffffffffffffff168152505034826080018181516124bb9190613fa4565b9150818152505060018260a001901515908115158152505081600684815481106124e8576124e7613e31565b5b90600052602060002090600a0201600082015181600001556020820151816001015560408201518160020160006101000a81548173ffffffffffffffffffffffffffffffffffffffff021916908373ffffffffffffffffffffffffffffffffffffffff16021790555060608201518160030160006101000a81548173ffffffffffffffffffffffffffffffffffffffff021916908373ffffffffffffffffffffffffffffffffffffffff1602179055506080820151816004015560a08201518160050160006101000a81548160ff02191690831515021790555060c08201518160050160016101000a81548173ffffffffffffffffffffffffffffffffffffffff021916908373ffffffffffffffffffffffffffffffffffffffff16021790555060e082015181600601906003612620929190613387565b506101008201518160090160006101000a81548160ff0219169083600381111561264d5761264c61366c565b5b02179055506101208201518160090160016101000a81548160ff0219169083151502179055509050507f1f8563b32a0bf618f00d2cbcb52b004d5757561ee12274f8c1d85b6f44fa551a83336040516126a792919061411c565b60405180910390a1505050565b6000806126c083612b7c565b9050600160028111156126d6576126d561366c565b5b8160028111156126e9576126e861366c565b5b036126f8576001915050612837565b60028081111561270b5761270a61366c565b5b81600281111561271e5761271d61366c565b5b0361272d576002915050612837565b61273683612d37565b90506001600281111561274c5761274b61366c565b5b81600281111561275f5761275e61366c565b5b0361276e576001915050612837565b6002808111156127815761278061366c565b5b8160028111156127945761279361366c565b5b036127a3576002915050612837565b6127ac83612ef2565b9050600160028111156127c2576127c161366c565b5b8160028111156127d5576127d461366c565b5b036127e4576001915050612837565b6002808111156127f7576127f661366c565b5b81600281111561280a5761280961366c565b5b03612819576002915050612837565b61282283613261565b15612831576003915050612837565b60009150505b919050565b600160038111156128505761284f61366c565b5b8360038111156128635761286261366c565b5b036129635760006064600354606461287b9190613d4b565b8661288691906146b3565b6128909190614724565b905060006064600354876128a491906146b3565b6128ae9190614724565b905081600560008673ffffffffffffffffffffffffffffffffffffffff1673ffffffffffffffffffffffffffffffffffffffff16815260200190815260200160002060008282546128ff9190613fa4565b9250508190555080600560003073ffffffffffffffffffffffffffffffffffffffff1673ffffffffffffffffffffffffffffffffffffffff16815260200190815260200160002060008282546129559190613fa4565b925050819055505050612b76565b600260038111156129775761297661366c565b5b83600381111561298a5761298961366c565b5b03612a8a576000606460035460646129a29190613d4b565b866129ad91906146b3565b6129b79190614724565b905060006064600354876129cb91906146b3565b6129d59190614724565b905081600560008573ffffffffffffffffffffffffffffffffffffffff1673ffffffffffffffffffffffffffffffffffffffff1681526020019081526020016000206000828254612a269190613fa4565b9250508190555080600560003073ffffffffffffffffffffffffffffffffffffffff1673ffffffffffffffffffffffffffffffffffffffff1681526020019081526020016000206000828254612a7c9190613fa4565b925050819055505050612b75565b600380811115612a9d57612a9c61366c565b5b836003811115612ab057612aaf61366c565b5b03612b74576000600285612ac49190614724565b905080600560008573ffffffffffffffffffffffffffffffffffffffff1673ffffffffffffffffffffffffffffffffffffffff1681526020019081526020016000206000828254612b159190613fa4565b9250508190555080600560008473ffffffffffffffffffffffffffffffffffffffff1673ffffffffffffffffffffffffffffffffffffffff1681526020019081526020016000206000828254612b6b9190613fa4565b92505081905550505b5b5b50505050565b600080600090505b600360ff168160ff161015612d305760005b60016003612ba49190614755565b60ff168160ff161015612d1c5760006002811115612bc557612bc461366c565b5b848360ff1660038110612bdb57612bda613e31565b5b60200201518260ff1660038110612bf557612bf4613e31565b5b60200201516002811115612c0c57612c0b61366c565b5b0315612d1c57838260ff1660038110612c2857612c27613e31565b5b6020020151600182612c3a919061478a565b60ff1660038110612c4e57612c4d613e31565b5b60200201516002811115612c6557612c6461366c565b5b848360ff1660038110612c7b57612c7a613e31565b5b60200201518260ff1660038110612c9557612c94613e31565b5b60200201516002811115612cac57612cab61366c565b5b03612d1c5760026003612cbf9190614755565b60ff168160ff1603612d0957838260ff1660038110612ce157612ce0613e31565b5b60200201518160ff1660038110612cfb57612cfa613e31565b5b602002015192505050612d32565b8080612d14906147bf565b915050612b96565b508080612d28906147bf565b915050612b84565b505b919050565b600080600090505b600360ff168160ff161015612eeb5760005b60016003612d5f9190614755565b60ff168160ff161015612ed75760006002811115612d8057612d7f61366c565b5b848260ff1660038110612d9657612d95613e31565b5b60200201518360ff1660038110612db057612daf613e31565b5b60200201516002811115612dc757612dc661366c565b5b0315612ed75783600182612ddb919061478a565b60ff1660038110612def57612dee613e31565b5b60200201518260ff1660038110612e0957612e08613e31565b5b60200201516002811115612e2057612e1f61366c565b5b848260ff1660038110612e3657612e35613e31565b5b60200201518360ff1660038110612e5057612e4f613e31565b5b60200201516002811115612e6757612e6661366c565b5b03612ed75760026003612e7a9190614755565b60ff168160ff1603612ec457838160ff1660038110612e9c57612e9b613e31565b5b60200201518260ff1660038110612eb657612eb5613e31565b5b602002015192505050612eed565b8080612ecf906147bf565b915050612d51565b508080612ee3906147bf565b915050612d3f565b505b919050565b6000806002811115612f0757612f0661366c565b5b82600060038110612f1b57612f1a613e31565b5b6020020151600060038110612f3357612f32613e31565b5b60200201516002811115612f4a57612f4961366c565b5b14158015612fdb575081600160038110612f6757612f66613e31565b5b6020020151600160038110612f7f57612f7e613e31565b5b60200201516002811115612f9657612f9561366c565b5b82600060038110612faa57612fa9613e31565b5b6020020151600060038110612fc257612fc1613e31565b5b60200201516002811115612fd957612fd861366c565b5b145b801561306a575081600260038110612ff657612ff5613e31565b5b602002015160026003811061300e5761300d613e31565b5b602002015160028111156130255761302461366c565b5b8260016003811061303957613038613e31565b5b602002015160016003811061305157613050613e31565b5b602002015160028111156130685761306761366c565b5b145b156130a7578160006003811061308357613082613e31565b5b602002015160006003811061309b5761309a613e31565b5b6020020151905061325c565b600060028111156130bb576130ba61366c565b5b826000600381106130cf576130ce613e31565b5b60200201516002600381106130e7576130e6613e31565b5b602002015160028111156130fe576130fd61366c565b5b1415801561318f57508160016003811061311b5761311a613e31565b5b602002015160016003811061313357613132613e31565b5b6020020151600281111561314a5761314961366c565b5b8260006003811061315e5761315d613e31565b5b602002015160026003811061317657613175613e31565b5b6020020151600281111561318d5761318c61366c565b5b145b801561321e5750816002600381106131aa576131a9613e31565b5b60200201516000600381106131c2576131c1613e31565b5b602002015160028111156131d9576131d861366c565b5b826001600381106131ed576131ec613e31565b5b602002015160016003811061320557613204613e31565b5b6020020151600281111561321c5761321b61366c565b5b145b1561325b578160006003811061323757613236613e31565b5b602002015160026003811061324f5761324e613e31565b5b6020020151905061325c565b5b919050565b600080600090505b600360ff168160ff16101561331c5760005b600360ff168160ff161015613308576000600281111561329e5761329d61366c565b5b848360ff16600381106132b4576132b3613e31565b5b60200201518260ff16600381106132ce576132cd613e31565b5b602002015160028111156132e5576132e461366c565b5b036132f557600092505050613322565b8080613300906147bf565b91505061327b565b508080613314906147bf565b915050613269565b50600190505b919050565b60405180606001604052806003905b61333e613486565b8152602001906001900390816133365790505090565b506000818161336391906134a8565b506001016000818161337591906134a8565b50600101600061338591906134a8565b565b82600381019282156133c4579160200282015b828111156133c3578251829060036133b39291906134af565b509160200191906001019061339a565b5b5090506133d19190613558565b5090565b6040518061014001604052806000815260200160008152602001600073ffffffffffffffffffffffffffffffffffffffff168152602001600073ffffffffffffffffffffffffffffffffffffffff16815260200160008152602001600015158152602001600073ffffffffffffffffffffffffffffffffffffffff16815260200161345e613327565b8152602001600060038111156134775761347661366c565b5b81526020016000151581525090565b6040518060600160405280600390602082028036833780820191505090505090565b5060009055565b826003601f016020900481019282156135475791602002820160005b8382111561351857835183826101000a81548160ff021916908360028111156134f7576134f661366c565b5b021790555092602001926001016020816000010492830192600103026134cb565b80156135455782816101000a81549060ff0219169055600101602081600001049283019260010302613518565b505b509050613554919061357c565b5090565b5b80821115613578576000818161356f91906134a8565b50600101613559565b5090565b5b8082111561359557600081600090555060010161357d565b5090565b600080fd5b6000819050919050565b6135b18161359e565b81146135bc57600080fd5b50565b6000813590506135ce816135a8565b92915050565b6000602082840312156135ea576135e9613599565b5b60006135f8848285016135bf565b91505092915050565b61360a8161359e565b82525050565b600073ffffffffffffffffffffffffffffffffffffffff82169050919050565b600061363b82613610565b9050919050565b61364b81613630565b82525050565b60008115159050919050565b61366681613651565b82525050565b7f4e487b7100000000000000000000000000000000000000000000000000000000600052602160045260246000fd5b600481106136ac576136ab61366c565b5b50565b60008190506136bd8261369b565b919050565b60006136cd826136af565b9050919050565b6136dd816136c2565b82525050565b6000610120820190506136f9600083018c613601565b613706602083018b613601565b613713604083018a613642565b6137206060830189613642565b61372d6080830188613601565b61373a60a083018761365d565b61374760c0830186613642565b61375460e08301856136d4565b61376261010083018461365d565b9a9950505050505050505050565b60006020820190506137856000830184613601565b92915050565b600060039050919050565b600081905092915050565b6000819050919050565b600060039050919050565b600081905092915050565b6000819050919050565b600381106137dc576137db61366c565b5b50565b60008190506137ed826137cb565b919050565b60006137fd826137df565b9050919050565b61380d816137f2565b82525050565b600061381f8383613804565b60208301905092915050565b6000602082019050919050565b613841816137ab565b61384b81846137b6565b9250613856826137c1565b8060005b8381101561388757815161386e8782613813565b96506138798361382b565b92505060018101905061385a565b505050505050565b600061389b8383613838565b60608301905092915050565b6000602082019050919050565b6138bd8161378b565b6138c78184613796565b92506138d2826137a1565b8060005b838110156139035781516138ea878261388f565b96506138f5836138a7565b9250506001810190506138d6565b505050505050565b60006101208201905061392160008301846138b4565b92915050565b600060ff82169050919050565b61393d81613927565b811461394857600080fd5b50565b60008135905061395a81613934565b92915050565b60008060006060848603121561397957613978613599565b5b60006139878682870161394b565b93505060206139988682870161394b565b92505060406139a9868287016135bf565b9150509250925092565b60006139be82613610565b9050919050565b6139ce816139b3565b82525050565b60006020820190506139e960008301846139c5565b92915050565b600081519050919050565b600082825260208201905092915050565b6000819050602082019050919050565b613a248161359e565b82525050565b613a3381613630565b82525050565b613a4281613651565b82525050565b600081905092915050565b613a5c8161378b565b613a668184613a48565b9250613a71826137a1565b8060005b83811015613aa2578151613a89878261388f565b9650613a94836138a7565b925050600181019050613a75565b505050505050565b613ab3816136c2565b82525050565b61024082016000820151613ad06000850182613a1b565b506020820151613ae36020850182613a1b565b506040820151613af66040850182613a2a565b506060820151613b096060850182613a2a565b506080820151613b1c6080850182613a1b565b5060a0820151613b2f60a0850182613a39565b5060c0820151613b4260c0850182613a2a565b5060e0820151613b5560e0850182613a53565b50610100820151613b6a610200850182613aaa565b50610120820151613b7f610220850182613a39565b50505050565b6000613b918383613ab9565b6102408301905092915050565b6000602082019050919050565b6000613bb6826139ef565b613bc081856139fa565b9350613bcb83613a0b565b8060005b83811015613bfc578151613be38882613b85565b9750613bee83613b9e565b925050600181019050613bcf565b5085935050505092915050565b60006020820190508181036000830152613c238184613bab565b905092915050565b6000602082019050613c40600083018461365d565b92915050565b613c4f81613630565b8114613c5a57600080fd5b50565b600081359050613c6c81613c46565b92915050565b600060208284031215613c8857613c87613599565b5b6000613c9684828501613c5d565b91505092915050565b600082825260208201905092915050565b7f4e6f7420656e6f7567682062616c616e63652e00000000000000000000000000600082015250565b6000613ce6601383613c9f565b9150613cf182613cb0565b602082019050919050565b60006020820190508181036000830152613d1581613cd9565b9050919050565b7f4e487b7100000000000000000000000000000000000000000000000000000000600052601160045260246000fd5b6000613d568261359e565b9150613d618361359e565b9250828203905081811115613d7957613d78613d1c565b5b92915050565b600081905092915050565b50565b6000613d9a600083613d7f565b9150613da582613d8a565b600082019050919050565b6000613dbb82613d8d565b9150819050919050565b7f4661696c656420746f20636c61696d20726577617264732e0000000000000000600082015250565b6000613dfb601883613c9f565b9150613e0682613dc5565b602082019050919050565b60006020820190508181036000830152613e2a81613dee565b9050919050565b7f4e487b7100000000000000000000000000000000000000000000000000000000600052603260045260246000fd5b7f4e6f74206f776e65722e00000000000000000000000000000000000000000000600082015250565b6000613e96600a83613c9f565b9150613ea182613e60565b602082019050919050565b60006020820190508181036000830152613ec581613e89565b9050919050565b7f4661696c656420746f2077697468647261772e00000000000000000000000000600082015250565b6000613f02601383613c9f565b9150613f0d82613ecc565b602082019050919050565b60006020820190508181036000830152613f3181613ef5565b9050919050565b7f47616d6520697320737461727465642e00000000000000000000000000000000600082015250565b6000613f6e601083613c9f565b9150613f7982613f38565b602082019050919050565b60006020820190508181036000830152613f9d81613f61565b9050919050565b6000613faf8261359e565b9150613fba8361359e565b9250828201905080821115613fd257613fd1613d1c565b5b92915050565b7f53686f756c6420706173732031206461792e0000000000000000000000000000600082015250565b600061400e601283613c9f565b915061401982613fd8565b602082019050919050565b6000602082019050818103600083015261403d81614001565b9050919050565b7f4f6e6c792063726561746f722063616e2063616e63656c2e0000000000000000600082015250565b600061407a601883613c9f565b915061408582614044565b602082019050919050565b600060208201905081810360008301526140a98161406d565b9050919050565b7f4661696c656420746f2073656e642e0000000000000000000000000000000000600082015250565b60006140e6600f83613c9f565b91506140f1826140b0565b602082019050919050565b60006020820190508181036000830152614115816140d9565b9050919050565b60006040820190506141316000830185613601565b61413e6020830184613642565b9392505050565b7f47616d657320617265207061757365642e000000000000000000000000000000600082015250565b600061417b601183613c9f565b915061418682614145565b602082019050919050565b600060208201905081810360008301526141aa8161416e565b9050919050565b7f4e6f742073746172746564207965742e00000000000000000000000000000000600082015250565b60006141e7601083613c9f565b91506141f2826141b1565b602082019050919050565b60006020820190508181036000830152614216816141da565b9050919050565b7f47616d652069732066696e69736865642e000000000000000000000000000000600082015250565b6000614253601183613c9f565b915061425e8261421d565b602082019050919050565b6000602082019050818103600083015261428281614246565b9050919050565b7f4e6f7420796f7572207475726e21000000000000000000000000000000000000600082015250565b60006142bf600e83613c9f565b91506142ca82614289565b602082019050919050565b600060208201905081810360008301526142ee816142b2565b9050919050565b7f43656c6c206973206e6f7420656d707479210000000000000000000000000000600082015250565b600061432b601283613c9f565b9150614336826142f5565b602082019050919050565b6000602082019050818103600083015261435a8161431e565b9050919050565b6000819050919050565b600061438661438161437c84613927565b614361565b61359e565b9050919050565b6143968161436b565b82525050565b60006080820190506143b16000830187613601565b6143be602083018661438d565b6143cb604083018561438d565b6143d86060830184613642565b95945050505050565b60006060820190506143f66000830186613601565b61440360208301856136d4565b6144106040830184613601565b949350505050565b7f53657420666565206869676865722e0000000000000000000000000000000000600082015250565b600061444e600f83613c9f565b915061445982614418565b602082019050919050565b6000602082019050818103600083015261447d81614441565b9050919050565b7f4661696c656420746f2073656e64204574686572000000000000000000000000600082015250565b60006144ba601483613c9f565b91506144c582614484565b602082019050919050565b600060208201905081810360008301526144e9816144ad565b9050919050565b60006060820190506145056000830186613601565b6145126020830185613642565b61451f6040830184613601565b949350505050565b60006145328261359e565b91507fffffffffffffffffffffffffffffffffffffffffffffffffffffffffffffffff820361456457614563613d1c565b5b600182019050919050565b7f57726f6e6720656e747279206665652e00000000000000000000000000000000600082015250565b60006145a5601083613c9f565b91506145b08261456f565b602082019050919050565b600060208201905081810360008301526145d481614598565b9050919050565b7f416c726561647920737461727465642e00000000000000000000000000000000600082015250565b6000614611601083613c9f565b915061461c826145db565b602082019050919050565b6000602082019050818103600083015261464081614604565b9050919050565b7f596f752061726520503120616c736f2e00000000000000000000000000000000600082015250565b600061467d601083613c9f565b915061468882614647565b602082019050919050565b600060208201905081810360008301526146ac81614670565b9050919050565b60006146be8261359e565b91506146c98361359e565b92508282026146d78161359e565b915082820484148315176146ee576146ed613d1c565b5b5092915050565b7f4e487b7100000000000000000000000000000000000000000000000000000000600052601260045260246000fd5b600061472f8261359e565b915061473a8361359e565b92508261474a576147496146f5565b5b828204905092915050565b600061476082613927565b915061476b83613927565b9250828203905060ff81111561478457614783613d1c565b5b92915050565b600061479582613927565b91506147a083613927565b9250828201905060ff8111156147b9576147b8613d1c565b5b92915050565b60006147ca82613927565b915060ff82036147dd576147dc613d1c565b5b60018201905091905056fea26469706673582212205b19f548c6bdd8ba9b0dfbc733c3a505b0845eb753baef0c6382e6c9cc1b694764736f6c63430008110033",
  "linkReferences": {},
  "deployedLinkReferences": {}
}