{
  "_format": "hh-sol-artifact-1",
  "contractName": "TicTacToe",
  "sourceName": "contracts/TicTacToe.sol",
  "abi": [
    {
      "inputs": [
        {
          "internalType": "uint256",
          "name": "_commission",
          "type": "uint256"
        },
        {
          "internalType": "uint256",
          "name": "_MINIMUM_ENTRY_FEE",
          "type": "uint256"
        }
      ],
      "stateMutability": "payable",
      "type": "constructor"
    },
    {
      "anonymous": false,
      "inputs": [
        {
          "indexed": false,
          "internalType": "uint256",
          "name": "gameId",
          "type": "uint256"
        },
        {
          "indexed": false,
          "internalType": "address",
          "name": "playerOne",
          "type": "address"
        }
      ],
      "name": "GameCancelled",
      "type": "event"
    },
    {
      "anonymous": false,
      "inputs": [
        {
          "indexed": false,
          "internalType": "uint256",
          "name": "gameId",
          "type": "uint256"
        },
        {
          "indexed": false,
          "internalType": "address",
          "name": "playerOne",
          "type": "address"
        },
        {
          "indexed": false,
          "internalType": "uint256",
          "name": "entryFee",
          "type": "uint256"
        }
      ],
      "name": "GameStarted",
      "type": "event"
    },
    {
      "anonymous": false,
      "inputs": [
        {
          "indexed": false,
          "internalType": "uint256",
          "name": "gameId",
          "type": "uint256"
        },
        {
          "indexed": false,
          "internalType": "enum TicTacToe.Winner",
          "name": "winner",
          "type": "uint8"
        },
        {
          "indexed": false,
          "internalType": "uint256",
          "name": "reward",
          "type": "uint256"
        }
      ],
      "name": "HaveWinner",
      "type": "event"
    },
    {
      "anonymous": false,
      "inputs": [
        {
          "indexed": false,
          "internalType": "uint256",
          "name": "gameId",
          "type": "uint256"
        },
        {
          "indexed": false,
          "internalType": "address",
          "name": "playerTwo",
          "type": "address"
        }
      ],
      "name": "JoinedGame",
      "type": "event"
    },
    {
      "anonymous": false,
      "inputs": [
        {
          "indexed": false,
          "internalType": "uint256",
          "name": "gameId",
          "type": "uint256"
        },
        {
          "indexed": false,
          "internalType": "uint256",
          "name": "x",
          "type": "uint256"
        },
        {
          "indexed": false,
          "internalType": "uint256",
          "name": "y",
          "type": "uint256"
        },
        {
          "indexed": false,
          "internalType": "address",
          "name": "player",
          "type": "address"
        }
      ],
      "name": "MadeMove",
      "type": "event"
    },
    {
      "stateMutability": "payable",
      "type": "fallback"
    },
    {
      "inputs": [
        {
          "internalType": "address",
          "name": "",
          "type": "address"
        }
      ],
      "name": "balance",
      "outputs": [
        {
          "internalType": "uint256",
          "name": "",
          "type": "uint256"
        }
      ],
      "stateMutability": "view",
      "type": "function"
    },
    {
      "inputs": [
        {
          "internalType": "uint256",
          "name": "_gameId",
          "type": "uint256"
        }
      ],
      "name": "cancelGame",
      "outputs": [],
      "stateMutability": "nonpayable",
      "type": "function"
    },
    {
      "inputs": [
        {
          "internalType": "uint256",
          "name": "_amount",
          "type": "uint256"
        }
      ],
      "name": "claimRewards",
      "outputs": [],
      "stateMutability": "payable",
      "type": "function"
    },
    {
      "inputs": [],
      "name": "commission",
      "outputs": [
        {
          "internalType": "uint256",
          "name": "",
          "type": "uint256"
        }
      ],
      "stateMutability": "view",
      "type": "function"
    },
    {
      "inputs": [],
      "name": "countGame",
      "outputs": [
        {
          "internalType": "uint256",
          "name": "",
          "type": "uint256"
        }
      ],
      "stateMutability": "view",
      "type": "function"
    },
    {
      "inputs": [
        {
          "internalType": "uint256",
          "name": "",
          "type": "uint256"
        }
      ],
      "name": "games",
      "outputs": [
        {
          "internalType": "uint256",
          "name": "gameId",
          "type": "uint256"
        },
        {
          "internalType": "uint256",
          "name": "creatingTime",
          "type": "uint256"
        },
        {
          "internalType": "address",
          "name": "playerOne",
          "type": "address"
        },
        {
          "internalType": "address",
          "name": "playerTwo",
          "type": "address"
        },
        {
          "internalType": "uint256",
          "name": "rewardPool",
          "type": "uint256"
        },
        {
          "internalType": "bool",
          "name": "isStarted",
          "type": "bool"
        },
        {
          "internalType": "address",
          "name": "nextMove",
          "type": "address"
        },
        {
          "internalType": "enum TicTacToe.Winner",
          "name": "winner",
          "type": "uint8"
        },
        {
          "internalType": "bool",
          "name": "isRewardClaimed",
          "type": "bool"
        }
      ],
      "stateMutability": "view",
      "type": "function"
    },
    {
      "inputs": [],
      "name": "getBalance",
      "outputs": [
        {
          "internalType": "uint256",
          "name": "",
          "type": "uint256"
        }
      ],
      "stateMutability": "view",
      "type": "function"
    },
    {
      "inputs": [
        {
          "internalType": "address",
          "name": "_address",
          "type": "address"
        }
      ],
      "name": "getEachBalance",
      "outputs": [
        {
          "internalType": "uint256",
          "name": "",
          "type": "uint256"
        }
      ],
      "stateMutability": "view",
      "type": "function"
    },
    {
      "inputs": [
        {
          "internalType": "uint256",
          "name": "_gameId",
          "type": "uint256"
        }
      ],
      "name": "getGameBoard",
      "outputs": [
        {
          "internalType": "enum TicTacToe.Status[3][3]",
          "name": "",
          "type": "uint8[3][3]"
        }
      ],
      "stateMutability": "view",
      "type": "function"
    },
    {
      "inputs": [],
      "name": "getGames",
      "outputs": [
        {
          "components": [
            {
              "internalType": "uint256",
              "name": "gameId",
              "type": "uint256"
            },
            {
              "internalType": "uint256",
              "name": "creatingTime",
              "type": "uint256"
            },
            {
              "internalType": "address",
              "name": "playerOne",
              "type": "address"
            },
            {
              "internalType": "address",
              "name": "playerTwo",
              "type": "address"
            },
            {
              "internalType": "uint256",
              "name": "rewardPool",
              "type": "uint256"
            },
            {
              "internalType": "bool",
              "name": "isStarted",
              "type": "bool"
            },
            {
              "internalType": "address",
              "name": "nextMove",
              "type": "address"
            },
            {
              "internalType": "enum TicTacToe.Status[3][3]",
              "name": "gameBoard",
              "type": "uint8[3][3]"
            },
            {
              "internalType": "enum TicTacToe.Winner",
              "name": "winner",
              "type": "uint8"
            },
            {
              "internalType": "bool",
              "name": "isRewardClaimed",
              "type": "bool"
            }
          ],
          "internalType": "struct TicTacToe.Game[]",
          "name": "",
          "type": "tuple[]"
        }
      ],
      "stateMutability": "view",
      "type": "function"
    },
    {
      "inputs": [
        {
          "internalType": "uint256",
          "name": "_gameId",
          "type": "uint256"
        }
      ],
      "name": "joinGame",
      "outputs": [],
      "stateMutability": "payable",
      "type": "function"
    },
    {
      "inputs": [
        {
          "internalType": "uint8",
          "name": "_x",
          "type": "uint8"
        },
        {
          "internalType": "uint8",
          "name": "_y",
          "type": "uint8"
        },
        {
          "internalType": "uint256",
          "name": "_gameId",
          "type": "uint256"
        }
      ],
      "name": "makeMove",
      "outputs": [],
      "stateMutability": "nonpayable",
      "type": "function"
    },
    {
      "inputs": [],
      "name": "owner",
      "outputs": [
        {
          "internalType": "address payable",
          "name": "",
          "type": "address"
        }
      ],
      "stateMutability": "view",
      "type": "function"
    },
    {
      "inputs": [],
      "name": "pausedAllGames",
      "outputs": [
        {
          "internalType": "bool",
          "name": "",
          "type": "bool"
        }
      ],
      "stateMutability": "view",
      "type": "function"
    },
    {
      "inputs": [],
      "name": "startGame",
      "outputs": [],
      "stateMutability": "payable",
      "type": "function"
    },
    {
      "inputs": [],
      "name": "toggleContract",
      "outputs": [],
      "stateMutability": "nonpayable",
      "type": "function"
    },
    {
      "inputs": [
        {
          "internalType": "uint256",
          "name": "_amount",
          "type": "uint256"
        }
      ],
      "name": "withdraw",
      "outputs": [],
      "stateMutability": "payable",
      "type": "function"
    },
    {
      "stateMutability": "payable",
      "type": "receive"
    }
  ],
  "bytecode": "0x60a06040526001805560405162004e9538038062004e9583398181016040528101906200002d91906200056a565b6032821062000073576040517f08c379a00000000000000000000000000000000000000000000000000000000081526004016200006a9062000612565b60405180910390fd5b6064811015620000ba576040517f08c379a0000000000000000000000000000000000000000000000000000000008152600401620000b19062000684565b60405180910390fd5b336000806101000a81548173ffffffffffffffffffffffffffffffffffffffff021916908373ffffffffffffffffffffffffffffffffffffffff16021790555081600381905550806080818152505062000113620002cc565b60058190806001815401808255809150506001900390600052602060002090600a0201600090919091909150600082015181600001556020820151816001015560408201518160020160006101000a81548173ffffffffffffffffffffffffffffffffffffffff021916908373ffffffffffffffffffffffffffffffffffffffff16021790555060608201518160030160006101000a81548173ffffffffffffffffffffffffffffffffffffffff021916908373ffffffffffffffffffffffffffffffffffffffff1602179055506080820151816004015560a08201518160050160006101000a81548160ff02191690831515021790555060c08201518160050160016101000a81548173ffffffffffffffffffffffffffffffffffffffff021916908373ffffffffffffffffffffffffffffffffffffffff16021790555060e0820151816006019060036200026b92919062000382565b506101008201518160090160006101000a81548160ff021916908360038111156200029b576200029a620006a6565b5b02179055506101208201518160090160016101000a81548160ff0219169083151502179055505050505050620006d5565b6040518061014001604052806000815260200160008152602001600073ffffffffffffffffffffffffffffffffffffffff168152602001600073ffffffffffffffffffffffffffffffffffffffff16815260200160008152602001600015158152602001600073ffffffffffffffffffffffffffffffffffffffff16815260200162000357620003d7565b815260200160006003811115620003735762000372620006a6565b5b81526020016000151581525090565b8260038101928215620003c4579160200282015b82811115620003c357825182906003620003b292919062000407565b509160200191906001019062000396565b5b509050620003d39190620004ba565b5090565b60405180606001604052806003905b620003f0620004e2565b815260200190600190039081620003e65790505090565b826003601f01602090048101928215620004a75791602002820160005b838211156200047657835183826101000a81548160ff02191690836002811115620004545762000453620006a6565b5b0217905550926020019260010160208160000104928301926001030262000424565b8015620004a55782816101000a81549060ff021916905560010160208160000104928301926001030262000476565b505b509050620004b6919062000504565b5090565b5b80821115620004de5760008181620004d4919062000523565b50600101620004bb565b5090565b6040518060600160405280600390602082028036833780820191505090505090565b5b808211156200051f57600081600090555060010162000505565b5090565b5060009055565b600080fd5b6000819050919050565b62000544816200052f565b81146200055057600080fd5b50565b600081519050620005648162000539565b92915050565b600080604083850312156200058457620005836200052a565b5b6000620005948582860162000553565b9250506020620005a78582860162000553565b9150509250929050565b600082825260208201905092915050565b7f436f6d6d697373696f6e2073686f756c64206265203c2035302e000000000000600082015250565b6000620005fa601a83620005b1565b91506200060782620005c2565b602082019050919050565b600060208201905081810360008301526200062d81620005eb565b9050919050565b7f4d696e206665652073686f756c64206265203e3d203130300000000000000000600082015250565b60006200066c601883620005b1565b9150620006798262000634565b602082019050919050565b600060208201905081810360008301526200069f816200065d565b9050919050565b7f4e487b7100000000000000000000000000000000000000000000000000000000600052602160045260246000fd5b6080516147a4620006f16000396000611b7d01526147a46000f3fe6080604052600436106101025760003560e01c80638da5cb5b11610095578063d65ab5f211610064578063d65ab5f214610305578063e14891911461030f578063e3d60e3c1461033a578063e3d670d714610377578063efaa55a0146103b457610109565b80638da5cb5b1461026d5780639df9002814610298578063c04c5947146102af578063d0232c70146102da57610109565b80632e1a7d4d116100d15780632e1a7d4d146101d45780633bb6c5f4146101f057806369958ab91461021b57806385f547451461024457610109565b80630962ef791461010b578063117a5b901461012757806312065fe01461016c5780631a2361e71461019757610109565b3661010957005b005b6101256004803603810190610120919061355a565b6103d0565b005b34801561013357600080fd5b5061014e6004803603810190610149919061355a565b610558565b60405161016399989796959493929190613669565b60405180910390f35b34801561017857600080fd5b5061018161063d565b60405161018e91906136f6565b60405180910390f35b3480156101a357600080fd5b506101be60048036038101906101b9919061355a565b610645565b6040516101cb9190613891565b60405180910390f35b6101ee60048036038101906101e9919061355a565b610725565b005b3480156101fc57600080fd5b5061020561093b565b60405161021291906136f6565b60405180910390f35b34801561022757600080fd5b50610242600480360381019061023d919061355a565b610941565b005b34801561025057600080fd5b5061026b600480360381019061026691906138e6565b610eaa565b005b34801561027957600080fd5b5061028261179a565b60405161028f919061395a565b60405180910390f35b3480156102a457600080fd5b506102ad6117be565b005b3480156102bb57600080fd5b506102c4611878565b6040516102d19190613b8f565b60405180910390f35b3480156102e657600080fd5b506102ef611b18565b6040516102fc9190613bb1565b60405180910390f35b61030d611b2b565b005b34801561031b57600080fd5b50610324611f25565b60405161033191906136f6565b60405180910390f35b34801561034657600080fd5b50610361600480360381019061035c9190613bf8565b611f2b565b60405161036e91906136f6565b60405180910390f35b34801561038357600080fd5b5061039e60048036038101906103999190613bf8565b611f74565b6040516103ab91906136f6565b60405180910390f35b6103ce60048036038101906103c9919061355a565b611f8c565b005b80600460003373ffffffffffffffffffffffffffffffffffffffff1673ffffffffffffffffffffffffffffffffffffffff168152602001908152602001600020541015610452576040517f08c379a000000000000000000000000000000000000000000000000000000000815260040161044990613c82565b60405180910390fd5b80600460003373ffffffffffffffffffffffffffffffffffffffff1673ffffffffffffffffffffffffffffffffffffffff16815260200190815260200160002060008282546104a19190613cd1565b9250508190555060003373ffffffffffffffffffffffffffffffffffffffff16826040516104ce90613d36565b60006040518083038185875af1925050503d806000811461050b576040519150601f19603f3d011682016040523d82523d6000602084013e610510565b606091505b5050905080610554576040517f08c379a000000000000000000000000000000000000000000000000000000000815260040161054b90613d97565b60405180910390fd5b5050565b6005818154811061056857600080fd5b90600052602060002090600a02016000915090508060000154908060010154908060020160009054906101000a900473ffffffffffffffffffffffffffffffffffffffff16908060030160009054906101000a900473ffffffffffffffffffffffffffffffffffffffff16908060040154908060050160009054906101000a900460ff16908060050160019054906101000a900473ffffffffffffffffffffffffffffffffffffffff16908060090160009054906101000a900460ff16908060090160019054906101000a900460ff16905089565b600047905090565b61064d6132ad565b60006005838154811061066357610662613db7565b5b90600052602060002090600a0201600601600380602002604051908101604052809291906000905b8282101561071657838201600380602002604051908101604052809291908260038015610702576020028201916000905b82829054906101000a900460ff1660028111156106dc576106db6135f2565b5b815260200190600101906020826000010492830192600103820291508084116106bc5790505b50505050508152602001906001019061068b565b50505050905080915050919050565b60008054906101000a900473ffffffffffffffffffffffffffffffffffffffff1673ffffffffffffffffffffffffffffffffffffffff163373ffffffffffffffffffffffffffffffffffffffff16146107b3576040517f08c379a00000000000000000000000000000000000000000000000000000000081526004016107aa90613e32565b60405180910390fd5b80600460003073ffffffffffffffffffffffffffffffffffffffff1673ffffffffffffffffffffffffffffffffffffffff168152602001908152602001600020541015610835576040517f08c379a000000000000000000000000000000000000000000000000000000000815260040161082c90613c82565b60405180910390fd5b80600460003073ffffffffffffffffffffffffffffffffffffffff1673ffffffffffffffffffffffffffffffffffffffff16815260200190815260200160002060008282546108849190613cd1565b9250508190555060003373ffffffffffffffffffffffffffffffffffffffff16826040516108b190613d36565b60006040518083038185875af1925050503d80600081146108ee576040519150601f19603f3d011682016040523d82523d6000602084013e6108f3565b606091505b5050905080610937576040517f08c379a000000000000000000000000000000000000000000000000000000000815260040161092e90613e9e565b60405180910390fd5b5050565b60015481565b60006005828154811061095757610956613db7565b5b90600052602060002090600a02016040518061014001604052908160008201548152602001600182015481526020016002820160009054906101000a900473ffffffffffffffffffffffffffffffffffffffff1673ffffffffffffffffffffffffffffffffffffffff1673ffffffffffffffffffffffffffffffffffffffff1681526020016003820160009054906101000a900473ffffffffffffffffffffffffffffffffffffffff1673ffffffffffffffffffffffffffffffffffffffff1673ffffffffffffffffffffffffffffffffffffffff168152602001600482015481526020016005820160009054906101000a900460ff161515151581526020016005820160019054906101000a900473ffffffffffffffffffffffffffffffffffffffff1673ffffffffffffffffffffffffffffffffffffffff1673ffffffffffffffffffffffffffffffffffffffff16815260200160068201600380602002604051908101604052809291906000905b82821015610b5357838201600380602002604051908101604052809291908260038015610b3f576020028201916000905b82829054906101000a900460ff166002811115610b1957610b186135f2565b5b81526020019060010190602082600001049283019260010382029150808411610af95790505b505050505081526020019060010190610ac8565b5050505081526020016009820160009054906101000a900460ff166003811115610b8057610b7f6135f2565b5b6003811115610b9257610b916135f2565b5b81526020016009820160019054906101000a900460ff16151515158152505090508060a0015115610bf8576040517f08c379a0000000000000000000000000000000000000000000000000000000008152600401610bef90613f0a565b60405180910390fd5b42620151808260200151610c0c9190613f2a565b10610c4c576040517f08c379a0000000000000000000000000000000000000000000000000000000008152600401610c4390613faa565b60405180910390fd5b3373ffffffffffffffffffffffffffffffffffffffff16816040015173ffffffffffffffffffffffffffffffffffffffff1614610cbe576040517f08c379a0000000000000000000000000000000000000000000000000000000008152600401610cb590614016565b60405180910390fd5b60058281548110610cd257610cd1613db7565b5b90600052602060002090600a020160008082016000905560018201600090556002820160006101000a81549073ffffffffffffffffffffffffffffffffffffffff02191690556003820160006101000a81549073ffffffffffffffffffffffffffffffffffffffff021916905560048201600090556005820160006101000a81549060ff02191690556005820160016101000a81549073ffffffffffffffffffffffffffffffffffffffff0219169055600682016000610d9291906132da565b6009820160006101000a81549060ff02191690556009820160016101000a81549060ff0219169055505060003373ffffffffffffffffffffffffffffffffffffffff168260800151604051610de690613d36565b60006040518083038185875af1925050503d8060008114610e23576040519150601f19603f3d011682016040523d82523d6000602084013e610e28565b606091505b5050905080610e6c576040517f08c379a0000000000000000000000000000000000000000000000000000000008152600401610e6390614082565b60405180910390fd5b7f58f64e02b3a6d2a3bd28b7700a0a0d6699545bcb55bf917ac0ff670f3a509efb8333604051610e9d9291906140a2565b60405180910390a1505050565b600260009054906101000a900460ff1615610efa576040517f08c379a0000000000000000000000000000000000000000000000000000000008152600401610ef190614117565b60405180910390fd5b600060058281548110610f1057610f0f613db7565b5b90600052602060002090600a02016040518061014001604052908160008201548152602001600182015481526020016002820160009054906101000a900473ffffffffffffffffffffffffffffffffffffffff1673ffffffffffffffffffffffffffffffffffffffff1673ffffffffffffffffffffffffffffffffffffffff1681526020016003820160009054906101000a900473ffffffffffffffffffffffffffffffffffffffff1673ffffffffffffffffffffffffffffffffffffffff1673ffffffffffffffffffffffffffffffffffffffff168152602001600482015481526020016005820160009054906101000a900460ff161515151581526020016005820160019054906101000a900473ffffffffffffffffffffffffffffffffffffffff1673ffffffffffffffffffffffffffffffffffffffff1673ffffffffffffffffffffffffffffffffffffffff16815260200160068201600380602002604051908101604052809291906000905b8282101561110c578382016003806020026040519081016040528092919082600380156110f8576020028201916000905b82829054906101000a900460ff1660028111156110d2576110d16135f2565b5b815260200190600101906020826000010492830192600103820291508084116110b25790505b505050505081526020019060010190611081565b5050505081526020016009820160009054906101000a900460ff166003811115611139576111386135f2565b5b600381111561114b5761114a6135f2565b5b81526020016009820160019054906101000a900460ff16151515158152505090508060a001516111b0576040517f08c379a00000000000000000000000000000000000000000000000000000000081526004016111a790614183565b60405180910390fd5b600060038111156111c4576111c36135f2565b5b81610100015160038111156111dc576111db6135f2565b5b1461121c576040517f08c379a0000000000000000000000000000000000000000000000000000000008152600401611213906141ef565b60405180910390fd5b3373ffffffffffffffffffffffffffffffffffffffff168160c0015173ffffffffffffffffffffffffffffffffffffffff161461128e576040517f08c379a00000000000000000000000000000000000000000000000000000000081526004016112859061425b565b60405180910390fd5b600060028111156112a2576112a16135f2565b5b8160e001518560ff16600381106112bc576112bb613db7565b5b60200201518460ff16600381106112d6576112d5613db7565b5b602002015160028111156112ed576112ec6135f2565b5b1461132d576040517f08c379a0000000000000000000000000000000000000000000000000000000008152600401611324906142c7565b60405180910390fd5b806040015173ffffffffffffffffffffffffffffffffffffffff163373ffffffffffffffffffffffffffffffffffffffff160361140a5760018160e001518560ff16600381106113805761137f613db7565b5b60200201518460ff166003811061139a57611399613db7565b5b602002019060028111156113b1576113b06135f2565b5b908160028111156113c5576113c46135f2565b5b8152505080606001518160c0019073ffffffffffffffffffffffffffffffffffffffff16908173ffffffffffffffffffffffffffffffffffffffff16815250506114e4565b806060015173ffffffffffffffffffffffffffffffffffffffff163373ffffffffffffffffffffffffffffffffffffffff16036114e35760028160e001518560ff166003811061145d5761145c613db7565b5b60200201518460ff166003811061147757611476613db7565b5b6020020190600281111561148e5761148d6135f2565b5b908160028111156114a2576114a16135f2565b5b8152505080604001518160c0019073ffffffffffffffffffffffffffffffffffffffff16908173ffffffffffffffffffffffffffffffffffffffff16815250505b5b7f18b1d49fa18a1f33225d9ea1b2b8e7f40aba2c68cc5065c9dd62334aef6f4c37828585336040516115199493929190614322565b60405180910390a161152e8160e0015161263a565b8161010001906003811115611546576115456135f2565b5b9081600381111561155a576115596135f2565b5b81525050806005838154811061157357611572613db7565b5b90600052602060002090600a0201600082015181600001556020820151816001015560408201518160020160006101000a81548173ffffffffffffffffffffffffffffffffffffffff021916908373ffffffffffffffffffffffffffffffffffffffff16021790555060608201518160030160006101000a81548173ffffffffffffffffffffffffffffffffffffffff021916908373ffffffffffffffffffffffffffffffffffffffff1602179055506080820151816004015560a08201518160050160006101000a81548160ff02191690831515021790555060c08201518160050160016101000a81548173ffffffffffffffffffffffffffffffffffffffff021916908373ffffffffffffffffffffffffffffffffffffffff16021790555060e0820151816006019060036116ab92919061330d565b506101008201518160090160006101000a81548160ff021916908360038111156116d8576116d76135f2565b5b02179055506101208201518160090160016101000a81548160ff02191690831515021790555090505060006003811115611715576117146135f2565b5b816101000151600381111561172d5761172c6135f2565b5b146117945761174f8160800151826101000151836040015184606001516127c2565b7fbf1968c164be03f4b61398d39e02d14908da862880412e7a8347907459181dd082826101000151836080015160405161178b93929190614367565b60405180910390a15b50505050565b60008054906101000a900473ffffffffffffffffffffffffffffffffffffffff1681565b60008054906101000a900473ffffffffffffffffffffffffffffffffffffffff1673ffffffffffffffffffffffffffffffffffffffff163373ffffffffffffffffffffffffffffffffffffffff161461184c576040517f08c379a000000000000000000000000000000000000000000000000000000000815260040161184390613e32565b60405180910390fd5b600260009054906101000a900460ff1615600260006101000a81548160ff021916908315150217905550565b60606005805480602002602001604051908101604052809291908181526020016000905b82821015611b0f57838290600052602060002090600a02016040518061014001604052908160008201548152602001600182015481526020016002820160009054906101000a900473ffffffffffffffffffffffffffffffffffffffff1673ffffffffffffffffffffffffffffffffffffffff1673ffffffffffffffffffffffffffffffffffffffff1681526020016003820160009054906101000a900473ffffffffffffffffffffffffffffffffffffffff1673ffffffffffffffffffffffffffffffffffffffff1673ffffffffffffffffffffffffffffffffffffffff168152602001600482015481526020016005820160009054906101000a900460ff161515151581526020016005820160019054906101000a900473ffffffffffffffffffffffffffffffffffffffff1673ffffffffffffffffffffffffffffffffffffffff1673ffffffffffffffffffffffffffffffffffffffff16815260200160068201600380602002604051908101604052809291906000905b82821015611aa257838201600380602002604051908101604052809291908260038015611a8e576020028201916000905b82829054906101000a900460ff166002811115611a6857611a676135f2565b5b81526020019060010190602082600001049283019260010382029150808411611a485790505b505050505081526020019060010190611a17565b5050505081526020016009820160009054906101000a900460ff166003811115611acf57611ace6135f2565b5b6003811115611ae157611ae06135f2565b5b81526020016009820160019054906101000a900460ff1615151515815250508152602001906001019061189c565b50505050905090565b600260009054906101000a900460ff1681565b600260009054906101000a900460ff1615611b7b576040517f08c379a0000000000000000000000000000000000000000000000000000000008152600401611b7290614117565b60405180910390fd5b7f00000000000000000000000000000000000000000000000000000000000000003411611bdd576040517f08c379a0000000000000000000000000000000000000000000000000000000008152600401611bd4906143ea565b60405180910390fd5b60003073ffffffffffffffffffffffffffffffffffffffff1634604051611c0390613d36565b60006040518083038185875af1925050503d8060008114611c40576040519150601f19603f3d011682016040523d82523d6000602084013e611c45565b606091505b5050905080611c89576040517f08c379a0000000000000000000000000000000000000000000000000000000008152600401611c8090614456565b60405180910390fd5b611c9161335b565b60015481600001818152505033816040019073ffffffffffffffffffffffffffffffffffffffff16908173ffffffffffffffffffffffffffffffffffffffff16815250504281602001818152505034816080018181525050338160c0019073ffffffffffffffffffffffffffffffffffffffff16908173ffffffffffffffffffffffffffffffffffffffff168152505060058190806001815401808255809150506001900390600052602060002090600a0201600090919091909150600082015181600001556020820151816001015560408201518160020160006101000a81548173ffffffffffffffffffffffffffffffffffffffff021916908373ffffffffffffffffffffffffffffffffffffffff16021790555060608201518160030160006101000a81548173ffffffffffffffffffffffffffffffffffffffff021916908373ffffffffffffffffffffffffffffffffffffffff1602179055506080820151816004015560a08201518160050160006101000a81548160ff02191690831515021790555060c08201518160050160016101000a81548173ffffffffffffffffffffffffffffffffffffffff021916908373ffffffffffffffffffffffffffffffffffffffff16021790555060e082015181600601906003611e7792919061330d565b506101008201518160090160006101000a81548160ff02191690836003811115611ea457611ea36135f2565b5b02179055506101208201518160090160016101000a81548160ff02191690831515021790555050507f0c82908456d66c43e9de63edd66f9faf875c8f3a12f936e162d675ec42c354446001543334604051611f0193929190614476565b60405180910390a160016000815480929190611f1c906144ad565b91905055505050565b60035481565b6000600460008373ffffffffffffffffffffffffffffffffffffffff1673ffffffffffffffffffffffffffffffffffffffff168152602001908152602001600020549050919050565b60046020528060005260406000206000915090505481565b600260009054906101000a900460ff1615611fdc576040517f08c379a0000000000000000000000000000000000000000000000000000000008152600401611fd390614117565b60405180910390fd5b600060058281548110611ff257611ff1613db7565b5b90600052602060002090600a02016040518061014001604052908160008201548152602001600182015481526020016002820160009054906101000a900473ffffffffffffffffffffffffffffffffffffffff1673ffffffffffffffffffffffffffffffffffffffff1673ffffffffffffffffffffffffffffffffffffffff1681526020016003820160009054906101000a900473ffffffffffffffffffffffffffffffffffffffff1673ffffffffffffffffffffffffffffffffffffffff1673ffffffffffffffffffffffffffffffffffffffff168152602001600482015481526020016005820160009054906101000a900460ff161515151581526020016005820160019054906101000a900473ffffffffffffffffffffffffffffffffffffffff1673ffffffffffffffffffffffffffffffffffffffff1673ffffffffffffffffffffffffffffffffffffffff16815260200160068201600380602002604051908101604052809291906000905b828210156121ee578382016003806020026040519081016040528092919082600380156121da576020028201916000905b82829054906101000a900460ff1660028111156121b4576121b36135f2565b5b815260200190600101906020826000010492830192600103820291508084116121945790505b505050505081526020019060010190612163565b5050505081526020016009820160009054906101000a900460ff16600381111561221b5761221a6135f2565b5b600381111561222d5761222c6135f2565b5b81526020016009820160019054906101000a900460ff161515151581525050905080608001513414612294576040517f08c379a000000000000000000000000000000000000000000000000000000000815260040161228b90614541565b60405180910390fd5b8060a00151156122d9576040517f08c379a00000000000000000000000000000000000000000000000000000000081526004016122d0906145ad565b60405180910390fd5b3373ffffffffffffffffffffffffffffffffffffffff16816040015173ffffffffffffffffffffffffffffffffffffffff160361234b576040517f08c379a000000000000000000000000000000000000000000000000000000000815260040161234290614619565b60405180910390fd5b60003073ffffffffffffffffffffffffffffffffffffffff163460405161237190613d36565b60006040518083038185875af1925050503d80600081146123ae576040519150601f19603f3d011682016040523d82523d6000602084013e6123b3565b606091505b50509050806123f7576040517f08c379a00000000000000000000000000000000000000000000000000000000081526004016123ee90614456565b60405180910390fd5b33826060019073ffffffffffffffffffffffffffffffffffffffff16908173ffffffffffffffffffffffffffffffffffffffff168152505034826080018181516124419190613f2a565b9150818152505060018260a0019015159081151581525050816005848154811061246e5761246d613db7565b5b90600052602060002090600a0201600082015181600001556020820151816001015560408201518160020160006101000a81548173ffffffffffffffffffffffffffffffffffffffff021916908373ffffffffffffffffffffffffffffffffffffffff16021790555060608201518160030160006101000a81548173ffffffffffffffffffffffffffffffffffffffff021916908373ffffffffffffffffffffffffffffffffffffffff1602179055506080820151816004015560a08201518160050160006101000a81548160ff02191690831515021790555060c08201518160050160016101000a81548173ffffffffffffffffffffffffffffffffffffffff021916908373ffffffffffffffffffffffffffffffffffffffff16021790555060e0820151816006019060036125a692919061330d565b506101008201518160090160006101000a81548160ff021916908360038111156125d3576125d26135f2565b5b02179055506101208201518160090160016101000a81548160ff0219169083151502179055509050507f1f8563b32a0bf618f00d2cbcb52b004d5757561ee12274f8c1d85b6f44fa551a833360405161262d9291906140a2565b60405180910390a1505050565b60008061264683612b02565b90506001600281111561265c5761265b6135f2565b5b81600281111561266f5761266e6135f2565b5b0361267e5760019150506127bd565b600280811115612691576126906135f2565b5b8160028111156126a4576126a36135f2565b5b036126b35760029150506127bd565b6126bc83612cbd565b9050600160028111156126d2576126d16135f2565b5b8160028111156126e5576126e46135f2565b5b036126f45760019150506127bd565b600280811115612707576127066135f2565b5b81600281111561271a576127196135f2565b5b036127295760029150506127bd565b61273283612e78565b905060016002811115612748576127476135f2565b5b81600281111561275b5761275a6135f2565b5b0361276a5760019150506127bd565b60028081111561277d5761277c6135f2565b5b8160028111156127905761278f6135f2565b5b0361279f5760029150506127bd565b6127a8836131e7565b156127b75760039150506127bd565b60009150505b919050565b600160038111156127d6576127d56135f2565b5b8360038111156127e9576127e86135f2565b5b036128e9576000606460035460646128019190613cd1565b8661280c9190614639565b61281691906146aa565b9050600060646003548761282a9190614639565b61283491906146aa565b905081600460008673ffffffffffffffffffffffffffffffffffffffff1673ffffffffffffffffffffffffffffffffffffffff16815260200190815260200160002060008282546128859190613f2a565b9250508190555080600460003073ffffffffffffffffffffffffffffffffffffffff1673ffffffffffffffffffffffffffffffffffffffff16815260200190815260200160002060008282546128db9190613f2a565b925050819055505050612afc565b600260038111156128fd576128fc6135f2565b5b8360038111156129105761290f6135f2565b5b03612a10576000606460035460646129289190613cd1565b866129339190614639565b61293d91906146aa565b905060006064600354876129519190614639565b61295b91906146aa565b905081600460008573ffffffffffffffffffffffffffffffffffffffff1673ffffffffffffffffffffffffffffffffffffffff16815260200190815260200160002060008282546129ac9190613f2a565b9250508190555080600460003073ffffffffffffffffffffffffffffffffffffffff1673ffffffffffffffffffffffffffffffffffffffff1681526020019081526020016000206000828254612a029190613f2a565b925050819055505050612afb565b600380811115612a2357612a226135f2565b5b836003811115612a3657612a356135f2565b5b03612afa576000600285612a4a91906146aa565b905080600460008573ffffffffffffffffffffffffffffffffffffffff1673ffffffffffffffffffffffffffffffffffffffff1681526020019081526020016000206000828254612a9b9190613f2a565b9250508190555080600460008473ffffffffffffffffffffffffffffffffffffffff1673ffffffffffffffffffffffffffffffffffffffff1681526020019081526020016000206000828254612af19190613f2a565b92505081905550505b5b5b50505050565b600080600090505b600360ff168160ff161015612cb65760005b60016003612b2a91906146db565b60ff168160ff161015612ca25760006002811115612b4b57612b4a6135f2565b5b848360ff1660038110612b6157612b60613db7565b5b60200201518260ff1660038110612b7b57612b7a613db7565b5b60200201516002811115612b9257612b916135f2565b5b0315612ca257838260ff1660038110612bae57612bad613db7565b5b6020020151600182612bc09190614710565b60ff1660038110612bd457612bd3613db7565b5b60200201516002811115612beb57612bea6135f2565b5b848360ff1660038110612c0157612c00613db7565b5b60200201518260ff1660038110612c1b57612c1a613db7565b5b60200201516002811115612c3257612c316135f2565b5b03612ca25760026003612c4591906146db565b60ff168160ff1603612c8f57838260ff1660038110612c6757612c66613db7565b5b60200201518160ff1660038110612c8157612c80613db7565b5b602002015192505050612cb8565b8080612c9a90614745565b915050612b1c565b508080612cae90614745565b915050612b0a565b505b919050565b600080600090505b600360ff168160ff161015612e715760005b60016003612ce591906146db565b60ff168160ff161015612e5d5760006002811115612d0657612d056135f2565b5b848260ff1660038110612d1c57612d1b613db7565b5b60200201518360ff1660038110612d3657612d35613db7565b5b60200201516002811115612d4d57612d4c6135f2565b5b0315612e5d5783600182612d619190614710565b60ff1660038110612d7557612d74613db7565b5b60200201518260ff1660038110612d8f57612d8e613db7565b5b60200201516002811115612da657612da56135f2565b5b848260ff1660038110612dbc57612dbb613db7565b5b60200201518360ff1660038110612dd657612dd5613db7565b5b60200201516002811115612ded57612dec6135f2565b5b03612e5d5760026003612e0091906146db565b60ff168160ff1603612e4a57838160ff1660038110612e2257612e21613db7565b5b60200201518260ff1660038110612e3c57612e3b613db7565b5b602002015192505050612e73565b8080612e5590614745565b915050612cd7565b508080612e6990614745565b915050612cc5565b505b919050565b6000806002811115612e8d57612e8c6135f2565b5b82600060038110612ea157612ea0613db7565b5b6020020151600060038110612eb957612eb8613db7565b5b60200201516002811115612ed057612ecf6135f2565b5b14158015612f61575081600160038110612eed57612eec613db7565b5b6020020151600160038110612f0557612f04613db7565b5b60200201516002811115612f1c57612f1b6135f2565b5b82600060038110612f3057612f2f613db7565b5b6020020151600060038110612f4857612f47613db7565b5b60200201516002811115612f5f57612f5e6135f2565b5b145b8015612ff0575081600260038110612f7c57612f7b613db7565b5b6020020151600260038110612f9457612f93613db7565b5b60200201516002811115612fab57612faa6135f2565b5b82600160038110612fbf57612fbe613db7565b5b6020020151600160038110612fd757612fd6613db7565b5b60200201516002811115612fee57612fed6135f2565b5b145b1561302d578160006003811061300957613008613db7565b5b602002015160006003811061302157613020613db7565b5b602002015190506131e2565b60006002811115613041576130406135f2565b5b8260006003811061305557613054613db7565b5b602002015160026003811061306d5761306c613db7565b5b60200201516002811115613084576130836135f2565b5b141580156131155750816001600381106130a1576130a0613db7565b5b60200201516001600381106130b9576130b8613db7565b5b602002015160028111156130d0576130cf6135f2565b5b826000600381106130e4576130e3613db7565b5b60200201516002600381106130fc576130fb613db7565b5b60200201516002811115613113576131126135f2565b5b145b80156131a45750816002600381106131305761312f613db7565b5b602002015160006003811061314857613147613db7565b5b6020020151600281111561315f5761315e6135f2565b5b8260016003811061317357613172613db7565b5b602002015160016003811061318b5761318a613db7565b5b602002015160028111156131a2576131a16135f2565b5b145b156131e157816000600381106131bd576131bc613db7565b5b60200201516002600381106131d5576131d4613db7565b5b602002015190506131e2565b5b919050565b600080600090505b600360ff168160ff1610156132a25760005b600360ff168160ff16101561328e5760006002811115613224576132236135f2565b5b848360ff166003811061323a57613239613db7565b5b60200201518260ff166003811061325457613253613db7565b5b6020020151600281111561326b5761326a6135f2565b5b0361327b576000925050506132a8565b808061328690614745565b915050613201565b50808061329a90614745565b9150506131ef565b50600190505b919050565b60405180606001604052806003905b6132c461340c565b8152602001906001900390816132bc5790505090565b50600081816132e9919061342e565b50600101600081816132fb919061342e565b50600101600061330b919061342e565b565b826003810192821561334a579160200282015b8281111561334957825182906003613339929190613435565b5091602001919060010190613320565b5b50905061335791906134de565b5090565b6040518061014001604052806000815260200160008152602001600073ffffffffffffffffffffffffffffffffffffffff168152602001600073ffffffffffffffffffffffffffffffffffffffff16815260200160008152602001600015158152602001600073ffffffffffffffffffffffffffffffffffffffff1681526020016133e46132ad565b8152602001600060038111156133fd576133fc6135f2565b5b81526020016000151581525090565b6040518060600160405280600390602082028036833780820191505090505090565b5060009055565b826003601f016020900481019282156134cd5791602002820160005b8382111561349e57835183826101000a81548160ff0219169083600281111561347d5761347c6135f2565b5b02179055509260200192600101602081600001049283019260010302613451565b80156134cb5782816101000a81549060ff021916905560010160208160000104928301926001030261349e565b505b5090506134da9190613502565b5090565b5b808211156134fe57600081816134f5919061342e565b506001016134df565b5090565b5b8082111561351b576000816000905550600101613503565b5090565b600080fd5b6000819050919050565b61353781613524565b811461354257600080fd5b50565b6000813590506135548161352e565b92915050565b6000602082840312156135705761356f61351f565b5b600061357e84828501613545565b91505092915050565b61359081613524565b82525050565b600073ffffffffffffffffffffffffffffffffffffffff82169050919050565b60006135c182613596565b9050919050565b6135d1816135b6565b82525050565b60008115159050919050565b6135ec816135d7565b82525050565b7f4e487b7100000000000000000000000000000000000000000000000000000000600052602160045260246000fd5b60048110613632576136316135f2565b5b50565b600081905061364382613621565b919050565b600061365382613635565b9050919050565b61366381613648565b82525050565b60006101208201905061367f600083018c613587565b61368c602083018b613587565b613699604083018a6135c8565b6136a660608301896135c8565b6136b36080830188613587565b6136c060a08301876135e3565b6136cd60c08301866135c8565b6136da60e083018561365a565b6136e86101008301846135e3565b9a9950505050505050505050565b600060208201905061370b6000830184613587565b92915050565b600060039050919050565b600081905092915050565b6000819050919050565b600060039050919050565b600081905092915050565b6000819050919050565b60038110613762576137616135f2565b5b50565b600081905061377382613751565b919050565b600061378382613765565b9050919050565b61379381613778565b82525050565b60006137a5838361378a565b60208301905092915050565b6000602082019050919050565b6137c781613731565b6137d1818461373c565b92506137dc82613747565b8060005b8381101561380d5781516137f48782613799565b96506137ff836137b1565b9250506001810190506137e0565b505050505050565b600061382183836137be565b60608301905092915050565b6000602082019050919050565b61384381613711565b61384d818461371c565b925061385882613727565b8060005b838110156138895781516138708782613815565b965061387b8361382d565b92505060018101905061385c565b505050505050565b6000610120820190506138a7600083018461383a565b92915050565b600060ff82169050919050565b6138c3816138ad565b81146138ce57600080fd5b50565b6000813590506138e0816138ba565b92915050565b6000806000606084860312156138ff576138fe61351f565b5b600061390d868287016138d1565b935050602061391e868287016138d1565b925050604061392f86828701613545565b9150509250925092565b600061394482613596565b9050919050565b61395481613939565b82525050565b600060208201905061396f600083018461394b565b92915050565b600081519050919050565b600082825260208201905092915050565b6000819050602082019050919050565b6139aa81613524565b82525050565b6139b9816135b6565b82525050565b6139c8816135d7565b82525050565b600081905092915050565b6139e281613711565b6139ec81846139ce565b92506139f782613727565b8060005b83811015613a28578151613a0f8782613815565b9650613a1a8361382d565b9250506001810190506139fb565b505050505050565b613a3981613648565b82525050565b61024082016000820151613a5660008501826139a1565b506020820151613a6960208501826139a1565b506040820151613a7c60408501826139b0565b506060820151613a8f60608501826139b0565b506080820151613aa260808501826139a1565b5060a0820151613ab560a08501826139bf565b5060c0820151613ac860c08501826139b0565b5060e0820151613adb60e08501826139d9565b50610100820151613af0610200850182613a30565b50610120820151613b056102208501826139bf565b50505050565b6000613b178383613a3f565b6102408301905092915050565b6000602082019050919050565b6000613b3c82613975565b613b468185613980565b9350613b5183613991565b8060005b83811015613b82578151613b698882613b0b565b9750613b7483613b24565b925050600181019050613b55565b5085935050505092915050565b60006020820190508181036000830152613ba98184613b31565b905092915050565b6000602082019050613bc660008301846135e3565b92915050565b613bd5816135b6565b8114613be057600080fd5b50565b600081359050613bf281613bcc565b92915050565b600060208284031215613c0e57613c0d61351f565b5b6000613c1c84828501613be3565b91505092915050565b600082825260208201905092915050565b7f4e6f7420656e6f7567682062616c616e63652e00000000000000000000000000600082015250565b6000613c6c601383613c25565b9150613c7782613c36565b602082019050919050565b60006020820190508181036000830152613c9b81613c5f565b9050919050565b7f4e487b7100000000000000000000000000000000000000000000000000000000600052601160045260246000fd5b6000613cdc82613524565b9150613ce783613524565b9250828203905081811115613cff57613cfe613ca2565b5b92915050565b600081905092915050565b50565b6000613d20600083613d05565b9150613d2b82613d10565b600082019050919050565b6000613d4182613d13565b9150819050919050565b7f4661696c656420746f20636c61696d20726577617264732e0000000000000000600082015250565b6000613d81601883613c25565b9150613d8c82613d4b565b602082019050919050565b60006020820190508181036000830152613db081613d74565b9050919050565b7f4e487b7100000000000000000000000000000000000000000000000000000000600052603260045260246000fd5b7f4e6f74206f776e65722e00000000000000000000000000000000000000000000600082015250565b6000613e1c600a83613c25565b9150613e2782613de6565b602082019050919050565b60006020820190508181036000830152613e4b81613e0f565b9050919050565b7f4661696c656420746f2077697468647261772e00000000000000000000000000600082015250565b6000613e88601383613c25565b9150613e9382613e52565b602082019050919050565b60006020820190508181036000830152613eb781613e7b565b9050919050565b7f47616d6520697320737461727465642e00000000000000000000000000000000600082015250565b6000613ef4601083613c25565b9150613eff82613ebe565b602082019050919050565b60006020820190508181036000830152613f2381613ee7565b9050919050565b6000613f3582613524565b9150613f4083613524565b9250828201905080821115613f5857613f57613ca2565b5b92915050565b7f53686f756c6420706173732031206461792e0000000000000000000000000000600082015250565b6000613f94601283613c25565b9150613f9f82613f5e565b602082019050919050565b60006020820190508181036000830152613fc381613f87565b9050919050565b7f4f6e6c792063726561746f722063616e2063616e63656c2e0000000000000000600082015250565b6000614000601883613c25565b915061400b82613fca565b602082019050919050565b6000602082019050818103600083015261402f81613ff3565b9050919050565b7f4661696c656420746f2073656e642e0000000000000000000000000000000000600082015250565b600061406c600f83613c25565b915061407782614036565b602082019050919050565b6000602082019050818103600083015261409b8161405f565b9050919050565b60006040820190506140b76000830185613587565b6140c460208301846135c8565b9392505050565b7f47616d657320617265207061757365642e000000000000000000000000000000600082015250565b6000614101601183613c25565b915061410c826140cb565b602082019050919050565b60006020820190508181036000830152614130816140f4565b9050919050565b7f4e6f742073746172746564207965742e00000000000000000000000000000000600082015250565b600061416d601083613c25565b915061417882614137565b602082019050919050565b6000602082019050818103600083015261419c81614160565b9050919050565b7f47616d652069732066696e69736865642e000000000000000000000000000000600082015250565b60006141d9601183613c25565b91506141e4826141a3565b602082019050919050565b60006020820190508181036000830152614208816141cc565b9050919050565b7f4e6f7420796f7572207475726e21000000000000000000000000000000000000600082015250565b6000614245600e83613c25565b91506142508261420f565b602082019050919050565b6000602082019050818103600083015261427481614238565b9050919050565b7f43656c6c206973206e6f7420656d707479210000000000000000000000000000600082015250565b60006142b1601283613c25565b91506142bc8261427b565b602082019050919050565b600060208201905081810360008301526142e0816142a4565b9050919050565b6000819050919050565b600061430c614307614302846138ad565b6142e7565b613524565b9050919050565b61431c816142f1565b82525050565b60006080820190506143376000830187613587565b6143446020830186614313565b6143516040830185614313565b61435e60608301846135c8565b95945050505050565b600060608201905061437c6000830186613587565b614389602083018561365a565b6143966040830184613587565b949350505050565b7f53657420666565206869676865722e0000000000000000000000000000000000600082015250565b60006143d4600f83613c25565b91506143df8261439e565b602082019050919050565b60006020820190508181036000830152614403816143c7565b9050919050565b7f4661696c656420746f2073656e64204574686572000000000000000000000000600082015250565b6000614440601483613c25565b915061444b8261440a565b602082019050919050565b6000602082019050818103600083015261446f81614433565b9050919050565b600060608201905061448b6000830186613587565b61449860208301856135c8565b6144a56040830184613587565b949350505050565b60006144b882613524565b91507fffffffffffffffffffffffffffffffffffffffffffffffffffffffffffffffff82036144ea576144e9613ca2565b5b600182019050919050565b7f57726f6e6720656e747279206665652e00000000000000000000000000000000600082015250565b600061452b601083613c25565b9150614536826144f5565b602082019050919050565b6000602082019050818103600083015261455a8161451e565b9050919050565b7f416c726561647920737461727465642e00000000000000000000000000000000600082015250565b6000614597601083613c25565b91506145a282614561565b602082019050919050565b600060208201905081810360008301526145c68161458a565b9050919050565b7f596f752061726520503120616c736f2e00000000000000000000000000000000600082015250565b6000614603601083613c25565b915061460e826145cd565b602082019050919050565b60006020820190508181036000830152614632816145f6565b9050919050565b600061464482613524565b915061464f83613524565b925082820261465d81613524565b9150828204841483151761467457614673613ca2565b5b5092915050565b7f4e487b7100000000000000000000000000000000000000000000000000000000600052601260045260246000fd5b60006146b582613524565b91506146c083613524565b9250826146d0576146cf61467b565b5b828204905092915050565b60006146e6826138ad565b91506146f1836138ad565b9250828203905060ff81111561470a57614709613ca2565b5b92915050565b600061471b826138ad565b9150614726836138ad565b9250828201905060ff81111561473f5761473e613ca2565b5b92915050565b6000614750826138ad565b915060ff820361476357614762613ca2565b5b60018201905091905056fea26469706673582212205aa7b14063a69ad0d72d443e0e01d27502c325b9699bce65f9bef2f4f18003cc64736f6c63430008110033",
  "linkReferences": {},
  "deployedLinkReferences": {}
}